:020000040800F2
:1000000000500020F9530008292A0008352A00086A
:100010003B2A0008412A0008472A00080000000087
:100020000000000000000000000000004D2A000851
:10003000592A000800000000652A0008712A0008FB
:10004000415400084154000841540008415400083C
:10005000415400084154000841540008415400082C
:10006000415400084154000841540008415400081C
:10007000415400084154000841540008415400080C
:1000800041540008415400084154000841540008FC
:1000900041540008415400084154000841540008EC
:1000A00041540008415400084154000841540008DC
:1000B00041540008415400084154000841540008CC
:1000C0004154000841540008415400087D2A0008AA
:1000D00041540008912A0008415400084154000886
:1000E0004154000841540008415400080000000039
:1000F0000000000000000000000000000000000000
:0C01000000000000000000005FF808F1A3
:1001100010B5054C237833B9044B13B10448AFF341
:1001200000800123237010BD800600200000000025
:100130002883000808B5034B1BB103490348AFF3FC
:10014000008008BD0000000084060020288300080D
:10015000034613F8012B002AFBD1181A0138704707
:1001600081F0004102E000BF83F0004330B54FEA68
:1001700041044FEA430594EA050F08BF90EA020FD5
:100180001FBF54EA000C55EA020C7FEA645C7FEA68
:10019000655C00F0E2804FEA5454D4EB5555B8BF8B
:1001A0006D420CDD2C4480EA020281EA030382EAFC
:1001B000000083EA010180EA020281EA0303362D8E
:1001C00088BF30BD11F0004F4FEA01314FF4801C61
:1001D0004CEA113102D0404261EB410113F0004F73
:1001E0004FEA03334CEA133302D0524263EB43032A
:1001F00094EA050F00F0A780A4F10104D5F1200EC8
:100200000DDB02FA0EFC22FA05F2801841F1000122
:1002100003FA0EF2801843FA05F359410EE0A5F1F6
:1002200020050EF1200E012A03FA0EFC28BF4CF027
:10023000020C43FA05F3C01851EBE37101F00045DD
:1002400007D54FF0000EDCF1000C7EEB00006EEBEA
:100250000101B1F5801F1BD3B1F5001F0CD3490874
:100260005FEA30004FEA3C0C04F101044FEA4452CB
:1002700012F5800F80F09A80BCF1004F08BF5FEA52
:10028000500C50F1000041EB045141EA050130BD32
:100290005FEA4C0C404141EB010111F4801FA4F1D5
:1002A0000104E9D191F0000F04BF01460020B1FA2A
:1002B00081F308BF2033A3F10B03B3F120020CDA62
:1002C0000C3208DD02F1140CC2F10C0201FA0CF040
:1002D00021FA02F10CE002F11402D8BFC2F1200CA5
:1002E00001FA02F120FA0CFCDCBF41EA0C0190405B
:1002F000E41AA2BF01EB0451294330BD6FEA0404A4
:100300001F3C1CDA0C340EDC04F11404C4F120028E
:1003100020FA04F001FA02F340EA030021FA04F3A0
:1003200045EA030130BDC4F10C04C4F1200220FAF7
:1003300002F001FA04F340EA0300294630BD21FA35
:1003400004F0294630BD94F0000F83F4801306BFFB
:1003500081F480110134013D4EE77FEA645C18BFEF
:100360007FEA655C29D094EA050F08BF90EA020F86
:1003700005D054EA000C04BF1946104630BD91EA7E
:10038000030F1EBF0021002030BD5FEA545C05D181
:100390004000494128BF41F0004130BD14F58004C0
:1003A0003CBF01F5801130BD01F0004545F0FE4134
:1003B00041F470014FF0000030BD7FEA645C1ABF69
:1003C000194610467FEA655C1CBF0B46024650EAA0
:1003D000013406BF52EA033591EA030F41F40021CC
:1003E00030BD00BF90F0000F04BF0021704730B552
:1003F0004FF4806404F132044FF000054FF0000127
:1004000050E700BF90F0000F04BF0021704730B5E7
:100410004FF4806404F1320410F0004548BF4042BC
:100420004FF000013EE700BF42004FEAE2014FEA11
:1004300031014FEA02701FBF12F07F4393F07F4FEC
:1004400081F06051704792F0000F14BF93F07F4F1E
:10045000704730B54FF4607401F0004521F0004161
:1004600020E700BF50EA010208BF704730B54FF0E7
:1004700000050AE050EA010208BF704730B511F0EC
:10048000004502D5404261EB41014FF4806404F124
:1004900032045FEA915C3FF4DCAE4FF003025FEAA6
:1004A000DC0C18BF03325FEADC0C18BF033202EB2E
:1004B000DC02C2F1200300FA03FC20FA02F001FA88
:1004C00003FE40EA0E0021FA02F11444C1E600BF27
:1004D00070B54FF0FF0C4CF4E06C1CEA11541DBFDA
:1004E0001CEA135594EA0C0F95EA0C0F00F0DEF8A5
:1004F0002C4481EA030621EA4C5123EA4C5350EA8A
:10050000013518BF52EA033541F4801143F48013DA
:1005100038D0A0FB02CE4FF00005E1FB02E506F06B
:100520000042E0FB03E54FF00006E1FB03569CF0C0
:10053000000F18BF4EF0010EA4F1FF04B6F5007FC6
:1005400064F5407404D25FEA4E0E6D4146EB060638
:1005500042EAC62141EA55514FEAC52040EA5E50C1
:100560004FEACE2EB4F1FD0C88BFBCF5E06F1ED86B
:10057000BEF1004F08BF5FEA500E50F1000041EBA2
:10058000045170BD06F0004646EA010140EA02004F
:1005900081EA0301B4EB5C04C2BFD4EB0C0541EA71
:1005A000045170BD41F480114FF0000E013C00F386
:1005B000AB8014F1360FDEBF002001F0004170BDAA
:1005C000C4F10004203C35DA0C341BDC04F11404C3
:1005D000C4F1200500FA05F320FA04F001FA05F24F
:1005E00040EA020001F0004221F0004110EBD3701C
:1005F00021FA04F642EB06015EEA430E08BF20EA48
:10060000D37070BDC4F10C04C4F1200500FA04F3EA
:1006100020FA05F001FA04F240EA020001F000417C
:1006200010EBD37041F100015EEA430E08BF20EAEF
:10063000D37070BDC4F1200500FA05F24EEA020E37
:1006400020FA04F301FA05F243EA020321FA04F066
:1006500001F0004121FA04F220EA020000EBD3701D
:100660005EEA430E08BF20EAD37070BD94F0000F1D
:100670000FD101F00046400041EB010111F4801F51
:1006800008BF013CF7D041EA060195F0000F18BF02
:10069000704703F00046520043EB030313F4801F3E
:1006A00008BF013DF7D043EA0603704794EA0C0FF8
:1006B0000CEA135518BF95EA0C0F0CD050EA41060E
:1006C00018BF52EA4306D1D181EA030101F000418B
:1006D0004FF0000070BD50EA410606BF10461946B3
:1006E00052EA430619D094EA0C0F02D150EA0136BF
:1006F00013D195EA0C0F05D152EA03361CBF104600
:1007000019460AD181EA030101F0004141F0FE419E
:1007100041F470014FF0000070BD41F0FE4141F422
:10072000780170BD70B54FF0FF0C4CF4E06C1CEA22
:1007300011541DBF1CEA135594EA0C0F95EA0C0FD7
:1007400000F0A7F8A4EB050481EA030E52EA033592
:100750004FEA013100F088804FEA03334FF08055B3
:1007600045EA131343EA12634FEA022245EA1115E0
:1007700045EA10654FEA00260EF000419D4208BF91
:10078000964244F1FD0404F5407402D25B084FEA3E
:100790003202B61A65EB03055B084FEA32024FF4EA
:1007A00080104FF4002CB6EB020E75EB030E22BF47
:1007B000B61A754640EA0C005B084FEA3202B6EB07
:1007C000020E75EB030E22BFB61A754640EA5C00B6
:1007D0005B084FEA3202B6EB020E75EB030E22BF46
:1007E000B61A754640EA9C005B084FEA3202B6EB47
:1007F000020E75EB030E22BFB61A754640EADC0006
:1008000055EA060E18D04FEA051545EA16754FEA67
:1008100006164FEAC30343EA52734FEAC2025FEA85
:100820001C1CC0D111F4801F0BD141EA00014FF014
:1008300000004FF0004CB6E711F4801F04BF0143E5
:100840000020B4F1FD0C88BFBCF5E06F3FF6AFAE01
:10085000B5EB030C04BFB6EB020C5FEA500C50F191
:10086000000041EB045170BD0EF0004E4EEA113114
:1008700014EB5C04C2BFD4EB0C0541EA045170BD1B
:1008800041F480114FF0000E013C90E645EA060E5F
:100890008DE60CEA135594EA0C0F08BF95EA0C0F8D
:1008A0003FF43BAF94EA0C0F0AD150EA01347FF4D5
:1008B00034AF95EA0C0F7FF425AF104619462CE7AC
:1008C00095EA0C0F06D152EA03353FF4FDAE10460F
:1008D000194622E750EA410618BF52EA43067FF460
:1008E000C5AE50EA41047FF40DAF52EA43057FF4F0
:1008F000EBAE12E74FF0FF3C06E000BF4FF0010CFB
:1009000002E000BF4FF0010C4DF804CD4FEA410C5E
:100910007FEA6C5C4FEA430C18BF7FEA6C5C1BD02B
:1009200001B050EA410C0CBF52EA430C91EA030FAC
:1009300002BF90EA020F0020704710F1000F91EA09
:10094000030F58BF994208BF90422CBFD8176FEAD7
:10095000E37040F0010070474FEA410C7FEA6C5CA5
:1009600002D150EA013C07D14FEA430C7FEA6C5CAC
:10097000D6D152EA033CD3D05DF8040B704700BFD8
:100980008446104662468C461946634600E000BF26
:1009900001B5FFF7B7FF002848BF10F1000F01BDF8
:1009A0004DF808EDFFF7F4FF0CBF012000205DF8C3
:1009B00008FB00BF4DF808EDFFF7EAFF34BF012048
:1009C00000205DF808FB00BF4DF808EDFFF7E0FFE1
:1009D00094BF012000205DF808FB00BF4DF808ED32
:1009E000FFF7CEFF94BF012000205DF808FB00BF99
:1009F0004DF808EDFFF7C4FF34BF012000205DF87B
:100A000008FB00BF4FEA410C7FEA6C5C02D150EA60
:100A1000013C0AD14FEA430C7FEA6C5C02D152EAF6
:100A2000033C02D14FF0000070474FF001007047C7
:100A30004FEA410212F5001215D211D56FF4787306
:100A4000B3EB625212D94FEAC12343F0004343EAA9
:100A5000505311F0004F23FA02F018BF4042704784
:100A60004FF00000704750EA013005D111F000400E
:100A700008BF6FF0004070474FF00000704700BFA4
:100A800053B94AB9002908BF00281CBF4FF0FF31F5
:100A90004FF0FF3001F000B9ADF1080C6DE904CE64
:100AA00000F006F8DDF804E0DDE9022304B0704749
:100AB0002DE9F0478C460E460446089D002B50D188
:100AC0008A4217466CD9B2FA82FEBEF1000F0BD0F3
:100AD000CEF1200C01FA0EF620FA0CFC02FA0EF709
:100AE0004CEA060C00FA0EF43A0CBCFBF2F9BBB26D
:100AF00002FB19CC09FB03FA4FEA144848EA0C46FA
:100B0000B2450AD9F61909F1FF3180F02581B245C5
:100B100040F22281A9F102093E44A6EB0A06B6FB87
:100B2000F2F002FB106600FB03F3A4B244EA0644B1
:100B3000A34209D9E41900F1FF3280F00B81A342EE
:100B400040F2088102383C440021E41A40EA09409E
:100B5000002D62D0002324FA0EF42C606B60BDE8F7
:100B6000F0878B4207D9002D55D0002185E8410040
:100B70000846BDE8F087B3FA83F1002940F08F8082
:100B8000B34202D3824200F2FC80841A66EB030671
:100B90000120B446002D40D085E81010BDE8F08754
:100BA00012B90127B7FBF2F7B7FA87FEBEF1000FC3
:100BB00035D10121F61B4FEA174C1FFA87F8B6FB17
:100BC000FCF20CFB126608FB02F0230C43EA06461B
:100BD000B04207D9F61902F1FF3302D2B04200F257
:100BE000D2801A46361AB6FBFCF00CFB106608FBE6
:100BF00000F8A3B243EA0644A04507D9E41900F17E
:100C0000FF3302D2A04500F2B9801846A4EB0804D5
:100C100040EA02409CE729462846BDE8F08707FAEB
:100C20000EF7CEF1200326FA03F24FEA174CB2FB7F
:100C3000FCF11FFA87F80CFB112206FA0EF620FAD7
:100C400003F301FB08F933431E0C46EA0246B145A3
:100C500000FA0EF409D9F61901F1FF3280F08C8008
:100C6000B14540F2898002393E44A6EB0906B6FB45
:100C7000FCF00CFB106200FB08F99EB246EA02464B
:100C8000B14507D9F61900F1FF3371D2B1456FD9DB
:100C900002383E44A6EB090640EA01418FE7C1F164
:100CA000200722FA07F88B4048EA030326FA07F4E4
:100CB0004FEA134EB4FBFEF91FFA83FC0EFB1944F6
:100CC0008E4020FA07F809FB0CFA48EA06084FEABA
:100CD000184646EA0444A24502FA01F200FA01F677
:100CE00008D9E41809F1FF3044D2A24542D9A9F14C
:100CF00002091C44A4EB0A04B4FBFEF00EFB1044F2
:100D000000FB0CFC1FFA88F848EA0444A44507D904
:100D1000E41800F1FF3E29D2A44527D902381C442B
:100D200040EA0940A0FB0289A4EB0C0CCC45C2466A
:100D3000CE4615D312D055B1B6EB0A036CEB0E06B6
:100D400006FA07F7CB401F43CE402F606E600021AC
:100D5000BDE8F0871046F7E68946DEE64645EAD26A
:100D6000B8EB020A69EB030E0138E4E77046D7E7F7
:100D700018468FE78146BDE7114676E702383C44C6
:100D800044E7084606E7023A3E442BE703685A0068
:100D90004CBF43F0004323F000431844704700BFAA
:100DA00061B32DE9F84F01F1FF3A90460646D1466E
:100DB000002707EB090404EBD4746410E5007119F3
:100DC0000846FFF7E3FFA245834605F108003044DB
:100DD00009D0FFF7DBFFC34500F1FF3005D84045E0
:100DE00009D2671CE5E7C34505D9A74202D004F143
:100DF000FF39DEE700210846BDE8F88F0846704756
:100E0000012807D0022807D0044B00280CBF184641
:100E100000207047024870470248704711150008CB
:100E2000151500081915000830B5254B83B0044688
:100E30008D1E73B301A92846AFF3008018B3019942
:100E40002A46FFF7ADFF0146E8B1FFF79FFF4B6869
:100E5000A064012B11D0002B22DB081DFFF796FFA9
:100E60000023E06423650368002B1EDBFFF78EFF81
:100E700000232061184603B030BD05230022184628
:100E8000226103B030BD092300221846226103B05D
:100E900030BD0C4B0C491846C91AC9100191CFE757
:100EA0000123081DE0642365DDE7C3F30360FFF75A
:100EB000A7FF0028206114BF00230923DAE700BF41
:100EC00000000000108A0008C88B0008036810B5F5
:100ED000DA07044606D49B0700F1480009D500F064
:100EE00057FC2368590709D51A070ED5DB0613D519
:100EF00010BD00F045FC23685907F5D404F1D0007B
:100F000000F04EFC23681A07F0D404F5A87000F036
:100F10004FFC2368DB06EBD404F5E870BDE8104015
:100F200000F08ABC036803B103441846704700BF51
:100F300009207047704700BF70B504460D4608E0B1
:100F40002A6C2369626121462A46012098470828B5
:100F500008D1296C2046FFF767FF06460028EFD02E
:100F600007F097F90728FBD13046296CFFF7E2FF1D
:100F7000281D00F0F9FB00BF2DE9F04705460027CA
:100F8000ADF5727D03AC0E1D92460FCE0FC40FCE91
:100F90000FC40FCE0FC496E80F00D5F80C80D5F81B
:100FA000189084E80F0002AC2846216C2760FFF7F8
:100FB0003BFFBAF1000F074614BF0A2609267FB18E
:100FC000A36B46F010018DE810022A4663640120ED
:100FD0002B46C04778BB38460DF5727DBDE8F087DB
:100FE000236C4FF4F0726B6121467AA804F054FA36
:100FF0002B697AAA294630469847889B82468DE815
:101000001002314663642A462B460120C04790B93E
:101010004FF4F0727AA9204604F03EFABAF1080FB4
:1010200006D1216C2846FFF7FFFE09260746C6E7D2
:10103000BAF1070F05D0092738460DF5727DBDE8D6
:10104000F0873846216CFFF775FF03A800F08CFB92
:10105000406C7047F0B54FF0FF3ECB6BF9B00B64BE
:101060000E1D01AD0F4604460FCE0FC50FCE0FC5A6
:101070000FCE0FC596E80F0085E80F00CDF800E011
:1010800006E023696A46214698470828054608D1A4
:1010900010992046FFF7C8FE0028F2D0092079B049
:1010A000F0BD6846FFF712FF062DF7D139462046FE
:1010B000FFF742FF30B4DD6BC160826119461D64E9
:1010C000002230BC58E700BF70B54369C6680B64A6
:1010D00026B10122FFF750FF07F0DBF803690A464B
:1010E00004460D46014602209847072807D00828E5
:1010F00003D129462046FFF71FFF07F0CAF8304604
:10110000296CFFF717FF281D00F02EFBC2682AB1DB
:1011100010B4CC6B00220C6410BC2DE79AE700BF22
:10112000704700BF836813B101460120184770471C
:1011300000B5042907D8DFE801F003090609090012
:101140000BB90F2A05D902205DF804FB01205DF8D8
:1011500004FB00EB820252681846019B1A605DF89E
:1011600004FB00BF002310B584B003AC0A46009412
:101170001946FFF7DDFF039804B010BD00B5042940
:1011800007D8DFE801F00309060909000BB90F2AA7
:1011900005D902205DF804FB01205DF804FB0199EC
:1011A00000EB82020968184651605DF804FB00BF3D
:1011B000002310B584B004AC44F8042D00940A4612
:1011C0001946FFF7DBFF04B010BD00BFF0B54FF0CC
:1011D000FF3ED36BADF50F7D1364151D17AC0746AD
:1011E0000E460FCD0FC40FCD0FC40FCD0FC495E821
:1011F0000F0084E80F00CDF858E012E00C2116A88B
:101200006A46FFF7D5FF314616A8B84778B9049B60
:1012100016AA6946082098470528044608D00928D8
:1012200005D026996846FFF7FFFD0028E6D009247F
:1012300016A8FFF74BFE20460DF50F7DF0BD00BF51
:101240002DE9F04FCC6C914622688BB004340D46EA
:101250000792089400F0030B1E46002B60D1032375
:10126000120207928DF825608DF824302B6DBBF1AA
:10127000020F08BFAC6B13F0010340D1019300F0E3
:1012800008030393D4F80080B8F1000F39D0022E80
:1012900043D0B4F8008067880434AB6C27F0010AAF
:1012A0000F2148469A44FFF75DFF824533D828F066
:1012B00001039A4450452CBF002001207F0007F015
:1012C000020708F0010847EA0807012F3ED035D38E
:1012D000022F1CD1236823F000420292BBF1000FC1
:1012E00076D128B1039900297ED0002A00F0A6808B
:1012F000002B77DB029B013304EB8304C2E700235E
:101300000193022E3EDDFFF713FE002840D0092096
:101310000BB0BDE8F08F0020D0E767680834BCE769
:10132000022BA3DC0221130C8DF825301204DBB252
:1013300004EB830407928DF8241097E7BBF1000FAC
:1013400002D0002840F0BD8004349BE7BBF1000FC1
:1013500025D1A8B194E80C00991C4FEAD272D6D0DE
:1013600005F158010133069100F0A380201DFFF71D
:10137000D9FD06AB01462846AFF30080002877D19F
:1013800008347FE707A9484600F0F0FA0028BED1EC
:10139000019B002B5CD108200BB0BDE8F08F0D2124
:1013A00048462F6AFFF7DEFE8742E9D1AB6A9C42CE
:1013B000E6D12046FFF7EAFC0F2102464846FFF738
:1013C000F7FE48462A460021FFF7F2FE07209FE776
:1013D0000D2148462F6AFFF7C5FE874258D0236883
:1013E000002B87DA043485E7029B3BB305F15803F1
:1013F000271DCDF810B0DDF80C80A346DDF808A05D
:101400001C46059602E0B245B04616D03846069412
:10141000FFF788FD06AB014600222846AFF30080A7
:1014200008F1010604370028EDD0029B5C464345D5
:10143000DDF810B0059ED2D100E05C4648460D2193
:10144000FFF790FE069B2862AC626B6206205FE7A6
:101450000F214846FFF786FE0E2102464846FFF759
:10146000A7FE4846294A0F21FFF7A2FE07204FE7B3
:1014700007460D214846FFF775FE022F28621DD151
:101480002B46069A43F82C2F6B62AC6206203FE78E
:10149000AB6A9C42A3D1042200270299A318A96237
:1014A000EF622A636B632368BB421DDB0123019358
:1014B00020E748460D21FFF755FE2862069B6B6228
:1014C000E3E72046FFF762FC04340646AC63284697
:1014D000AFF3008000283FF41AAF484632460F2190
:1014E000FFF766FE072013E70846013004EB800093
:1014F000FFF74CFC0F2102464846FFF759FE4846CD
:101500002A463946FFF754FE072001E70000000095
:10151000002395E6012393E6022391E6F0B5044605
:10152000C5B004290DD8DFE801F055030C310F00D8
:10153000012B4FEA124695B264D17219102A40F27B
:101540009D80022045B0F0BD002BFAD1102AF8D8BA
:101550002368D80600F1C88022AE304601920125EA
:1015600000F074F90023A06B019A05FA03F111420F
:1015700003D00168043046F823100133042BF4D162
:10158000A063304600F058F90020DBE7032BD8D1E8
:10159000150C97B2EB19102BD3D823681E0700F156
:1015A000B78022AE304600F025F9ED00A06B5FB1A8
:1015B000043D0346711900EBC70053F8042B834226
:1015C00041F8042FF9D11846A063304600F0F0F836
:1015D0000020B7E7002BB4D10127A56B96B2201DE0
:1015E00007FA03F1314203F1010302D029680435FF
:1015F0000160102B00F10400F2D112F400503BD135
:10160000A5639FE7052B9CD17719202F99D80F2E22
:1016100066D92F46002D3AD12A460027002AA06B12
:1016200072DD00EBC202014644A800EBC6008C3814
:1016300051F8045B914240F8045FF9D1084697B134
:10164000102E324638BF102244A901EBC202A2F587
:10165000C4727900043A00EB810150F8045B8842BF
:1016600042F8045FF9D1012B48D00F2EA16333D982
:1016700017B102A800F094F8002063E70F2E3FF6A0
:1016800060AF00272268D10717D4002F60D02268EE
:10169000510745D4012B4DD00F2E06D822A8019317
:1016A00000F07AF8019B002FB6D002A8019300F059
:1016B0007BF8019BC6F11002B0E722F00101052B77
:1016C0002160019320463BD022F0030240F8482BD2
:1016D00000F05AF8019BD8E722A800F059F8C7E7B4
:1016E000102FCED9103FCDE723F01003236004F56F
:1016F000E870019200F0AAF8019A2DE70431A16385
:1017000022A800F03DF8B7E7002F99D10146AAE7DB
:1017100023F00803236004F5A87000F06BF840E79D
:10172000204622F0040240F8D02B019300F03CF850
:10173000019BAFE722A8019300F026F8019BB9E7CF
:1017400041F0020140F8481B00F026F8019B9CE79D
:10175000012B03D00F2E3FF65FAF9FE722A8019326
:1017600000F012F8019B57E700F1340191E83800CE
:101770009C46A6464CF8045D90E8FF0FE54600BD88
:1017800090EC210B704700BF80EC210B704700BF2D
:1017900090EC200B704700BF80EC200B704700BF1F
:1017A000D0EC200B704700BFC0EC200B704700BF8F
:1017B000F0EC0201F0EC0211F0EC0221F0EC02314D
:1017C000F0EC0241F0EC0251F0EC0261F0EC02713D
:1017D000F0EC0281F0EC0291F0EC02A1F0EC02B12D
:1017E000F0EC02C1F0EC02D1F0EC02E1F0EC02F11D
:1017F000704700BFE0EC0201E0EC0211E0EC0221D6
:10180000E0EC0231E0EC0241E0EC0251E0EC02617C
:10181000E0EC0271E0EC0281E0EC0291E0EC02A16C
:10182000E0EC02B1E0EC02C1E0EC02D1E0EC02E15C
:10183000E0EC02F1704700BFB0FC0181B0FC019107
:10184000B0FC01A1B0FC01B1704700BFA0FC018158
:10185000A0FC0191A0FC01A1A0FC01B1704700BF58
:10186000EC4600B52DE900502DE9FF1F4FF00003B5
:101870002DE90C0001A9FFF7EDFBDDF840E012B007
:10188000704700BFEC4600B52DE900502DE9FF1F61
:101890004FF000032DE90C0001A9FFF715FCDDF85E
:1018A00040E012B0704700BFEC4600B52DE9005093
:1018B0002DE9FF1F4FF000032DE90C0001A9FFF7F0
:1018C00025FCDDF840E012B0704700BFEC4600B5E3
:1018D0002DE900502DE9FF1F4FF000032DE90C000A
:1018E00001ABFFF7E7FBDDF840E012B0704700BF47
:1018F000EC4600B52DE900502DE9FF1F4FF0000325
:101900002DE90C0001AAFFF761FCDDF840E012B000
:10191000704700BF027A1AB9437A43B9B0207047C2
:101920000368013A02721A020260180E704703211E
:101930004268013B10B443721368141D01721A020D
:101940004460026010BC180E704700BF002300B551
:1019500085B003AA009219460C22FFF7E9FB039811
:1019600005B05DF804FB00BFF0E700BF2DE9F043D0
:1019700006460F464FF0000885B03846FFF7CAFF0D
:10198000B028044623D0050627D400230DF10C0906
:10199000194685000D22CDF800903046FFF7C8FBB0
:1019A000EDB2039B600605F104054CBF5D1BED180D
:1019B00000230D221946CDF8009030460395FFF71D
:1019C000DDFB3846FFF7A6FFB0280446DBD1B8F1AF
:1019D000000F00F0948000201CE000F0F003802B4A
:1019E0005CD0902B19D0A02B2CD0B02B3ED0C02B8C
:1019F0006BD000F0F803D02B0BD100F007020132BE
:101A000042F40022052301213046FFF787FD00281C
:101A1000B3D0092005B0BDE8F08300F00D030D2B15
:101A2000F7D0002303AD00F00F02194600953046B1
:101A3000FFF77EFB0023009519460D223046FFF785
:101A40009DFB9AE7C3434FF47F6203F007031A41FB
:101A50000023010702F47F6248BF42F48042194626
:101A60003046FFF75BFD0028D3D186E7B12857D079
:101A7000B22868D0B32800F0958000F0FC03B42BA6
:101A8000C7D0012300F007021A4442F4002219468D
:101A90003046FFF743FD0028BBD16EE73846FFF71D
:101AA00039FF24020443B4F5004FB2D000232401CF
:101AB000A2B219463046FFF731FD0028A9D114F42F
:101AC000004F18BF4FF0010857E7C6287DD0C72840
:101AD00000F0868000F0F803C02B00F09480C82846
:101AE00000F09F80C92894D13846FFF713FF020306
:101AF00000F00F0002F470220130024382E703ACD1
:101B000043460E22414600943046FFF711FB0094F5
:101B1000304643460F224146FFF730FB404679E707
:101B20003846FFF7F7FE00283FF473AF10F0F003DC
:101B30007FF46FAF024619463046FFF7EFFC0028EE
:101B40007FF467AF19E700230DF10C090D22194648
:101B5000CDF800903046FFF7EBFA3846FFF7DAFE93
:101B600002064FF002040CD5039B00F07F00A0405A
:101B7000034438460393FFF7CDFE030604F1070440
:101B8000F2D40023039900F07F02A24001F5017115
:101B90008C18CDF8009019460D2230460394FFF7BB
:101BA000EDFAEAE63846FFF7B5FE0123010300F03F
:101BB0000F0001F47021C2180A4330461946FFF79E
:101BC000ADFC00287FF425AFD7E63846FFF7A2FE2C
:101BD000010300F00F00032301F47021421CEBE726
:101BE0003846FFF797FE00283FF413AF10F0F003DC
:101BF0007FF40FAF024604213046FFF78FFC002828
:101C00007FF407AFB9E6032300F00F02013242F47C
:101C1000202219463046FFF781FC00287FF4F9AEF8
:101C2000ABE63846FFF776FE00F0F00200F00F0357
:101C30001032013343EA0232E4E600BF30B5032438
:101C40000D46C36C85B05A688DF80C40DC791202E1
:101C5000083301A9284601928DF80D400293FFF741
:101C600085FE05B030BD00BF08B5FFF77DFE806C76
:101C700008BD00BF08B5FFF777FEC06CC37900EB65
:101C80008300083008BD00BF08B506F002FB00BFA6
:101C900008B5FFF7F9FF00BF704700BF80B582B0FD
:101CA00000AF78600B46FB707B6898687B689B8907
:101CB000FA78194601F0DEFA00BF0837BD4680BD4C
:101CC00080B582B000AF78600B46FB707B68186807
:101CD0007B689B88FA78194601F0CCFA00BF083778
:101CE000BD4680BD80B582B000AF786000217868C5
:101CF000FFF7D4FF00BF0837BD4680BD80B582B076
:101D000000AF786001217868FFF7C8FF00BF08378F
:101D1000BD4680BD80B584B000AF78600B46FB70D7
:101D2000FB7803F01F03DBB2BB737868FFF7DAFFC1
:101D30007B68186907F10E014FF0FF33012201F0B3
:101D4000D3FE7B68186907F10F014FF0FF330122C2
:101D500002F005F87868FFF7D1FFFB7B18461037D3
:101D6000BD4680BD80B588B002AFF8607A601A4683
:101D70000B46FB721346BB72FB7A03F01F03DBB208
:101D800043F02003DBB2BB75F868FFF7ABFFFB68DD
:101D9000186907F1170207F116014FF0FF3300939E
:101DA000012302F0EAF8FB681869BB7A9AB24FF097
:101DB000FF33796801F098FEF868FFF79FFFFB7D1D
:101DC00018461837BD4680BD80B59EB002AF78601A
:101DD0000B46FB701346BB70FB7803F01F03DBB2AE
:101DE00043F02003DBB287F86E30FA78BB7807F156
:101DF0000800184903F064FB07F108031846FEF7D2
:101E0000A7F903469AB207F108014FF0FF331248D1
:101E100002F0C2FE7868FFF765FF7B68186907F17A
:101E20006F0207F16E014FF0FF330093012302F0C0
:101E3000A4F87B681869B91C4FF0FF33012201F048
:101E400053FE7868FFF75AFF97F86F3018467037DF
:101E5000BD4680BD408300083407002080B5A2B095
:101E600002AFF860B9601346FB71BB68BB676123C2
:101E700087F87630FB79FA68D27D934202DDFB6801
:101E8000DB7DFB71FB681B7E002B01D0002304E08F
:101E9000FB68DA7DFB79D31ADBB287F87F30FA79F9
:101EA00097F87F3007F11000254903F009FB07F18F
:101EB00010031846FEF74CF903469AB207F11001D9
:101EC0004FF0FF331F4802F067FEF868FFF70AFF84
:101ED000FB68186907F1770207F176014FF0FF33CD
:101EE0000093012302F049F8FB681869FB799AB264
:101EF0004FF0FF33B96F01F032FF012387F87630DE
:101F000097F87F305A1E87F87F20002B14BF0123DB
:101F10000023DBB2002B09D0FB68186907F17601BA
:101F20004FF0FF33012201F0DFFDE9E7F868FFF72A
:101F3000E5FE97F8773018468037BD4680BD00BF74
:101F40007C8300083407002080B582B000AF786041
:101F5000E221786800F012F8034618460837BD46BB
:101F600080BD80B582B000AF7860E121786800F074
:101F700005F8034618460837BD4680BD80B586B0D3
:101F800002AF78600B46FB707868FFF7ABFE7B68AA
:101F9000186907F10F02F91C4FF0FF33009301237A
:101FA00001F0EBFF7868FFF7A9FEFB7B18461037BE
:101FB000BD4680BD80B582B000AF7860FF217868F3
:101FC000FFF7DCFF034618460837BD4680BD80B4E6
:101FD00085B000AFF860B9603B601346FB80FB68DA
:101FE000BA681A60FB68FA889A80FB683A689A6057
:101FF000FB683A8B9A81FB68FA691A61FB680022D8
:102000009A75FB682022DA75FB6800221A76FB6855
:1020100005229A77FB6805225A62FB6800225A76ED
:10202000FB6818461437BD4680BC704780B584B045
:1020300000AF78600B46FB707D23FB73FB787C2B35
:1020400002DCFB1C1B7800E07D231A460521786822
:10205000FFF7BAFE00BF1037BD4680BD80B584B023
:1020600000AF78600023FB7300217868FFF728FE3B
:1020700001217868FFF712FE052000F0F7FD0C2221
:1020800000217868FFF7A0FE0F220521786800F094
:10209000E9F90221786800F09FF90346002B02D08D
:1020A0007B6801229A7506217868FFF733FE0346A4
:1020B000FB730021786800F08FF9786800F068F908
:1020C00000221D217868FFF77FFE00221C2178681E
:1020D000FFF77AFE7B6800221A7670220721786863
:1020E000FFF772FE4C217868FFF7A0FF7868FFF7D2
:1020F0002BFF7868FFF735FF786800F05EF8002165
:102100007868FFF707FE034623F00103DBB21A46A7
:1021100000217868FFF758FEFB7B002B04D0FB7B87
:10212000FF2B01D0012300E0002318461037BD46E5
:1021300080BD80B582B000AF7860786800F03DF86F
:1021400000217868FFF7E6FD034643F00103DBB2A8
:102150001A4600217868FFF737FE70220721786859
:10216000FFF732FE01217868FFF7AAFD7B685B7EEE
:10217000002B09DD7B6803F119027B689B7F0A2134
:102180007868FFF7EFFD03E00021786800F0DCF8E5
:102190001D217868FFF7BEFD034603F00203002B04
:1021A00014BF01230023DBB2002B02D07868FFF7B5
:1021B000D8FE00BF0837BD4680BD80B584B000AFF3
:1021C000786000217868FFF7A5FD0346FB73FB7B71
:1021D00003F00203002B0BD1FB7B43F00203DBB2C5
:1021E0001A4600217868FFF7EFFD052000F03EFD5C
:1021F00000BF1037BD4680BD80B582B000AF7860AB
:102200000021786800F005F8034618460837BD46F7
:1022100080BD80B584B000AF7860396017217868E0
:10222000FFF778FD034603F00103002B0CBF0123E9
:102230000023DBB2002B11D03B68002B0CD0786858
:10224000FFF7B8FE0346FB73FB7B5B10DBB203F0CA
:102250000703DAB23B681A70012300E00023184636
:102260001037BD4680BD80B584B000AFF860B9605E
:102270001346FB71FB791A46B968F868FFF7EEFD63
:1022800070220721F868FFF79FFD00BF1037BD4699
:1022900080BD000080B584B000AFF860C7E90023BE
:1022A0000B46FB72FB7A002B09D1FB6803F1190086
:1022B000FB689B7F1A463B46194603F0EDF8FB7A14
:1022C000062B36DCFB7A012B0ADCFB7A1B4A134413
:1022D0001978FB689B7F3A46F868FFF743FD08E0F2
:1022E000FB7A164A134419783A460123F868FFF737
:1022F00039FDFB7A124A13441978FB68DB7D1A46D4
:10230000F868FFF761FD0221F868FFF703FD034657
:102310005AB2FB7A0B490B441B78194601238B40B8
:102320005BB213435BB2DBB21A460221F868FFF7D7
:102330004BFD00BF1037BD4680BD00BFE8850008DB
:10234000F08500088C85000880B582B000AF786009
:102350000B46FB7002217868FFF7DCFC03465AB29B
:10236000FB780A490B441B78194601238B405BB26A
:10237000DB435BB213405BB2DBB21A4602217868E2
:10238000FFF722FD00BF0837BD4680BD8C850008E1
:1023900080B584B000AF78605023FB737868FFF796
:1023A000A1FC7B68186907F10F014FF0FF33012290
:1023B00001F09AFB7323FB737B68186907F10F0127
:1023C0004FF0FF33012201F08FFB7868FFF796FC96
:1023D00000BF1037BD4680BD80B584B000AF7860C7
:1023E0000B46FB700023FB7306217868FFF792FC15
:1023F0000346BB73BB7B23F02803BB737B68FA22C5
:102400001A62FB78022B08D1BB7B43F02003BB731D
:102410007B684FF4E1721A6209E0FB78012B06D168
:10242000BB7B43F00803BB737B68BE221A62BB7B95
:102430001A4606217868FFF7C7FC06217868FFF77F
:1024400069FC03461A46BB7B93420CBF0123002361
:10245000DBB2002B01D00123FB73FB7B1846103746
:10246000BD4680BD80B582B000AF78600B46FB7082
:102470001346BB70FB781B015AB297F9023003F088
:102480000F035BB213435BB2DBB21A4604217868D8
:10249000FFF79AFC00BF0837BD4680BD0000000072
:1024A00090B58FB002AF00F07FFB00F04FF800F066
:1024B00061F900F09BF800F0D5F800F02DF93846EE
:1024C0001D4B0193102300931C4B08221B49FFF75F
:1024D0007EFD17A418CCC7E90A343B461846FFF71F
:1024E000BDFD384612A3D3E900230121FFF7D2FE38
:1024F0003B461846FFF71DFE3B461846FFF77CFE9D
:102500000346002BF8D03B4601220D491846FFF741
:10251000AAFE4FF0FF33012209490A4802F03CFBB2
:102520004FF0FF3301220849064802F035FBE3E78C
:10253000E1F0F0E8E80000009C06002000080140FF
:1025400000000020340700200886000880B590B005
:1025500000AF07F1180328220021184602F0A7FF58
:102560003B1D00221A605A609A60DA601A610123EA
:10257000BB614FF48033FB614FF400333B620123B6
:10258000BB6202237B634FF48033BB634FF4501371
:10259000FB6307F11803184600F084FE0346002B86
:1025A00014BF01230023DBB2002B01D000F042F95D
:1025B0000F237B600223BB600023FB604FF480632A
:1025C0003B6100237B613B1D0221184601F0CEF8E0
:1025D0000346002B14BF01230023DBB2002B01D0E4
:1025E00000F028F900BF4037BD4680BD80B500AF80
:1025F0001A4B1B4A1A60194B4FF482725A60174BE0
:1026000000229A60154B0022DA60144B00221A61F6
:10261000124B00225A61114B4FF400729A610F4B1A
:102620000822DA610D4B00221A620C4B00225A621A
:102630000A4B00229A62094B0A22DA62074801F02B
:10264000A5FF0346002B14BF01230023DBB2002BA0
:1026500001D000F0EFF800BF80BD00BF9C06002055
:102660000030014080B586B000AF07F108030022BA
:102670001A605A609A60DA603B4600221A605A601B
:10268000244B4FF080421A60224B00225A60214BAB
:1026900000229A601F4B0022DA601E4B00221A6152
:1026A0001C4B00229A611B4801F0D4FF0346002B0B
:1026B00014BF01230023DBB2002B01D000F0BAF8D5
:1026C0004FF48053BB6007F108031946114801F02D
:1026D000ECFF0346002B14BF01230023DBB2002BC9
:1026E00001D000F0A7F800233B6000237B603B464D
:1026F0001946084802F0BFF90346002B14BF012316
:102700000023DBB2002B01D000F094F800BF183793
:10271000BD4680BDF406002080B500AF134B144ABF
:102720001A60124B4FF4E1325A60104B00229A604B
:102730000E4B0022DA600D4B00221A610B4B0C226B
:102740005A610A4B00229A61084B0022DA6107485D
:1027500002F0D5F90346002B14BF01230023DBB29E
:10276000002B01D000F066F800BF80BD34070020C8
:102770000038014080B588B000AF07F11003002297
:102780001A605A609A60DA60274A274B9B6943F0C7
:1027900010039361244B9B6903F01003FB60FB68FB
:1027A000214A214B9B6943F0200393611E4B9B6997
:1027B00003F02003BB60BB681B4A1B4B9B6943F0C3
:1027C00004039361184B9B6903F004037B607B68EF
:1027D00000224FF40051154800F04CFD0022182152
:1027E000134800F047FD4FF400533B6101237B6128
:1027F0000023BB610223FB6107F1100319460B485C
:1028000000F0DAFB18233B6101237B610023BB61ED
:102810000223FB6107F110031946054800F0CCFBC9
:1028200000BF2037BD4680BD0010024000100140AF
:102830000008014080B400AF00BFBD4680BC7047B7
:1028400080B485B000AF154A144B9B6943F0010377
:102850009361124B9B6903F00103BB60BB680F4A95
:102860000E4BDB6943F08053D3610C4BDB6903F003
:1028700080537B607B680A4B5B68FB60FB6823F0DE
:10288000E063FB60FB6843F00073FB60044AFB6895
:10289000536000BF1437BD4680BC70470010024033
:1028A0000000014080B588B000AF786007F11003E8
:1028B00000221A605A609A60DA607B681B681F4ABF
:1028C000934237D11E4A1E4B9B6943F48053936158
:1028D0001B4B9B6903F48053FB60FB68184A184B41
:1028E0009B6943F004039361154B9B6903F0040358
:1028F000BB60BB68A0233B6102237B610323FB61B8
:1029000007F1100319460F4800F056FB40233B61C6
:1029100000237B610023BB6107F1100319460948BE
:1029200000F04AFB00220021232000F092FA23202D
:1029300000F0ABFA00BF2037BD4680BD003001403B
:10294000001002400008014080B485B000AF7860FC
:102950007B681B68B3F1804F0BD1084A074BDB69DA
:1029600043F00103D361054BDB6903F00103FB6016
:10297000FB6800BF1437BD4680BC704700100240A2
:1029800080B588B000AF786007F1100300221A60AC
:102990005A609A60DA607B681B68204A934239D19A
:1029A0001F4A1F4B9B6943F4804393611C4B9B69F7
:1029B00003F48043FB60FB68194A194B9B6943F0A1
:1029C00004039361164B9B6903F00403BB60BB686F
:1029D0004FF400733B6102237B610323FB6107F12A
:1029E000100319460F4800F0E7FA4FF480633B618B
:1029F00000237B610023BB6107F1100319460948DE
:102A000000F0DAFA00220021252000F022FA252029
:102A100000F03BFA00BF2037BD4680BD00380140C2
:102A2000001002400008014080B400AF00BFBD4666
:102A300080BC704780B400AFFEE780B400AFFEE713
:102A400080B400AFFEE780B400AFFEE780B400AF13
:102A500000BFBD4680BC704780B400AF00BFBD461C
:102A600080BC704780B400AF00BFBD4680BC7047DB
:102A700080B500AF00F0DEF800BF80BD80B500AFCC
:102A8000024801F019FC00BF80BD00BF9C06002079
:102A900080B500AF024802F017F900BF80BD00BF4B
:102AA0003407002080B400AF01231846BD4680BC27
:102AB000704780B582B000AF7860396002F0C2FC28
:102AC0000246162313604FF0FF3318460837BD4601
:102AD00080BD80B582B000AF78604FF0FF3178687C
:102AE000FFF7E7FFFEE7000080B584B000AF786035
:102AF000114B1B68002B02D10F4B104A1A600E4B72
:102B00001B68FB600C4B1A687B6813446A4693424F
:102B100007D902F097FC02460C2313604FF0FF33F5
:102B200006E0054B1A687B681344034A1360FB6890
:102B300018461037BD4680BD74070020C00700202E
:102B400080B400AF154A154B1B6843F001031360B6
:102B50001249124B5A68124B13404B600F4A0F4BED
:102B60001B6823F0847323F4803313600B4A0B4BF0
:102B70001B6823F480231360084A084B5B6823F426
:102B8000FE035360054B4FF41F029A60054B4FF054
:102B900000629A6000BFBD4680BC704700100240D2
:102BA0000000FFF800ED00E080B500AF084A084BD8
:102BB0001B6843F010031360032000F03FF900206E
:102BC00000F008F8FFF73CFE0023184680BD00BF68
:102BD0000020024080B582B000AF7860124B1A68C6
:102BE000124B1B7819464FF47A73B3FBF1F3B2FB27
:102BF000F3F3184600F057F90346002B01D00123E8
:102C00000EE07B680F2B0AD8002279684FF0FF3066
:102C100000F01FF9064A7B681360002300E00123DF
:102C200018460837BD4680BD040000200C00002077
:102C30000800002080B400AF054B1B781A46054BF6
:102C40001B681344034A136000BFBD4680BC704735
:102C50000C000020AC07002080B400AF024B1B68C2
:102C60001846BD4680BC7047AC07002080B584B0D4
:102C700000AF7860FFF7F0FFB8607B68FB60FB682F
:102C8000B3F1FF3F05D0094B1B781A46FB6813448C
:102C9000FB6000BFFFF7E0FF0246BB68D21AFB688B
:102CA0009A42F7D300BF1037BD4680BD0C0000200C
:102CB00080B485B000AF78607B6803F00703FB60E9
:102CC0000C4BDB68BB60BA684FF6FF031340BB6078
:102CD000FB681A02BB68134343F0BF6343F400333D
:102CE000BB60044ABB68D36000BF1437BD4680BCDC
:102CF000704700BF00ED00E080B400AF044BDB681C
:102D00001B0A03F007031846BD4680BC704700BF8E
:102D100000ED00E080B483B000AF0346FB710849CA
:102D200097F907305B09FA7902F01F02012000FAD7
:102D300002F241F8232000BF0C37BD4680BC70472B
:102D400000E100E080B483B000AF03463960FB715E
:102D500097F90730002B0BDA0D49FB7903F00F03CD
:102D6000043B3A68D2B21201D2B20B441A7609E09F
:102D7000084997F907303A68D2B21201D2B20B442F
:102D800083F8002300BF0C37BD4680BC704700BFEE
:102D900000ED00E000E100E080B489B000AFF86031
:102DA000B9607A60FB6803F00703FB61FB69C3F15C
:102DB0000703042B28BF0423BB61FB690433062BE4
:102DC00002D9FB69033B00E000237B610122BB6960
:102DD00002FA03F35A1EBB681A407B699A4001212C
:102DE0007B6901FA03F3591E7B680B4013431846B5
:102DF0002437BD4680BC704780B582B000AF786094
:102E00007B68013BB3F1807F01D301230FE00A4AC5
:102E10007B68013B53600F214FF0FF30FFF792FFBB
:102E2000054B00229A60044B07221A6000231846C3
:102E30000837BD4680BD00BF10E000E080B582B01D
:102E400000AF78607868FFF733FF00BF0837BD46F2
:102E500080BD80B586B000AF0346B9607A60FB7371
:102E600000237B61FFF748FF78617A68B968786969
:102E7000FFF792FF024697F90F3011461846FFF709
:102E800061FF00BF1837BD4680BD80B582B000AF7E
:102E90000346FB7197F907301846FFF73BFF00BF69
:102EA0000837BD4680BD80B582B000AF78607868D5
:102EB000FFF7A2FF034618460837BD4680BD000055
:102EC00080B584B000AF78600023FB737B6893F813
:102ED0002130022B05D07B6804229A630123FB7307
:102EE00057E07B681B687A681268126822F00E024D
:102EF0001A607B681B687A681268126822F0010207
:102F00001A60264A7B681B681946254B99422ED0C9
:102F10007B681B681946234B994226D07B681B6847
:102F20001946214B99421DD07B681B6819461F4BDF
:102F3000994214D07B681B6819461D4B99420BD0EF
:102F40007B681B6819461B4B994202D14FF48013D2
:102F50000EE04FF080730BE04FF4803308E04FF445
:102F6000805305E04FF4807302E0102300E001235A
:102F700053607B68012283F821207B68002283F85C
:102F800020207B685B6B002B03D07B685B6B7868D1
:102F90009847FB7B18461037BD4680BD00000240B5
:102FA000080002401C000240300002404400024081
:102FB000580002406C00024080B48BB000AF7860D3
:102FC00039600023FB610023BB6100237B61002388
:102FD0003B6200233B6100237B6227E101227B6A85
:102FE00002FA03F3FB613B681A68FB691340BB619B
:102FF000BA69FB699A4240F016813B685B68122B04
:1030000034D0122B0DD8022B2BD0022B04D8002B3E
:1030100031D0012B1CD048E0032B43D0112B1BD007
:1030200043E0874A934226D0854A934206D8854A90
:10303000934220D0844A93421DD036E0834A934283
:1030400019D0834A934216D0824A934213D02CE07F
:103050003B68DB683B6228E03B68DB6804333B622B
:1030600023E03B68DB6808333B621EE03B68DB68BB
:103070000C333B6219E03B689B68002B02D10423B0
:103080003B6212E03B689B68012B05D108233B6241
:103090007B68FA691A6108E008233B627B68FA6979
:1030A0005A6102E000233B6200BFBB69FF2B01D8DD
:1030B0007B6801E07B680433FB60BB69FF2B02D8AF
:1030C0007B6A9B0002E07B6A083B9B003B61FB68DC
:1030D0001A680F213B6901FA03F3DB431A40396A8E
:1030E0003B6901FA03F31A43FB681A603B685B68AB
:1030F00003F08053002B00F09680574A564B9B6993
:1031000043F001039361544B9B6903F00103BB60DF
:10311000BB68524A7B6A9B08023352F823307B61BA
:103120007B6A03F003039B000F2202FA03F3DB43E5
:103130007A6913407B617B68494A934213D07B686C
:10314000484A93420DD07B68474A934207D07B6838
:10315000464A934201D1032306E0042304E00223FC
:1031600002E0012300E000237A6A02F003029200E9
:1031700093407A6913437B6138497B6A9B08023329
:103180007A6941F823203B685B6803F48033002BA5
:1031900006D03749364B1A68BB6913430B6006E00B
:1031A0003349334B1A68BB69DB4313400B603B6800
:1031B0005B6803F40033002B06D02D492C4B5A6872
:1031C000BB6913434B6006E02949294B5A68BB6928
:1031D000DB4313404B603B685B6803F48013002BB8
:1031E00006D02349224B9A68BB6913438B6006E0E3
:1031F0001F491F4B9A68BB69DB4313408B603B68D8
:103200005B6803F40013002B06D01949184BDA68E9
:10321000BB691343CB6006E01549154BDA68BB69FF
:10322000DB431340CB607B6A01337B627B6A0F2BED
:103230007FF6D4AE00BF2C37BD4680BC704700BFC0
:1032400000002110000011100000121000003110C9
:103250000000321000002210001002400000014067
:1032600000080140000C0140001001400014014022
:103270000004014080B483B000AF78600B467B80CF
:1032800013467B707B78002B03D07A887B681A61A9
:1032900003E07B881A047B681A6100BF0C37BD46C7
:1032A00080BC704780B586B000AF786000233B617A
:1032B0007B681B6803F00103002B00F08780924BB2
:1032C0005B6803F00C03042B0CD08F4B5B6803F09E
:1032D0000C03082B12D18C4B5B6803F48033B3F5DD
:1032E000803F0BD1884B1B6803F40033002B6CD05C
:1032F0007B685B68002B68D101232DE27B685B68EB
:10330000B3F5803F06D1804A7F4B1B6843F480337E
:1033100013602EE07B685B68002B0CD17A4A7A4BF5
:103320001B6823F480331360774A774B1B6823F4C0
:10333000802313601DE07B685B68B3F5A02F0CD180
:10334000714A714B1B6843F4802313606E4A6E4BC5
:103350001B6843F4803313600BE06B4A6A4B1B68B5
:1033600023F480331360684A674B1B6823F480237F
:1033700013607B685B68002B13D0FFF76DFC38612E
:1033800008E0FFF769FC02463B69D31A642B01D9B8
:103390000323E1E15C4B1B6803F40033002BF0D006
:1033A00014E0FFF759FC386108E0FFF755FC0246CE
:1033B0003B69D31A642B01D90323CDE1524B1B681F
:1033C00003F40033002BF0D100E000BF7B681B68E2
:1033D00003F00203002B63D04B4B5B6803F00C033C
:1033E000002B0BD0484B5B6803F00C03082B1CD15F
:1033F000454B5B6803F48033002B16D1424B1B68AE
:1034000003F00203002B05D07B681B69012B01D060
:103410000123A1E13C493C4B1B6823F0F8027B6887
:103420005B69DB0013430B603AE07B681B69002B90
:1034300020D0364B01221A60FFF70EFC386108E0FD
:10344000FFF70AFC02463B69D31A022B01D903237A
:1034500082E12D4B1B6803F00203002BF0D02A49B8
:10346000294B1B6823F0F8027B685B69DB00134380
:103470000B6015E0254B00221A60FFF7EDFB386169
:1034800008E0FFF7E9FB02463B69D31A022B01D99A
:10349000032361E11C4B1B6803F00203002BF0D1F6
:1034A0007B681B6803F00803002B39D07B689B699D
:1034B000002B19D0164B01221A60FFF7CDFB3861A3
:1034C00008E0FFF7C9FB02463B69D31A022B01D97A
:1034D000032341E10C4B5B6A03F00203002BF0D0A5
:1034E000012000F0E3FA1BE0094B00221A60FFF70D
:1034F000B3FB38610EE0FFF7AFFB02463B69D31A1E
:10350000022B07D9032327E10010024000004242AA
:1035100080044242924B5B6A03F00203002BEAD123
:103520007B681B6803F00403002B00F0A6800023D7
:10353000FB758B4BDB6903F08053002B0DD1884A60
:10354000874BDB6943F08053D361854BDB6903F024
:103550008053FB60FB680123FB75824B1B6803F4FF
:103560008073002B18D17F4A7E4B1B6843F4807315
:103570001360FFF771FB386108E0FFF76DFB02464F
:103580003B69D31A642B01D90323E5E0754B1B6813
:1035900003F48073002BF0D07B68DB68012B06D12D
:1035A0006F4A6F4B1B6A43F0010313622DE07B6887
:1035B000DB68002B0CD16A4A694B1B6A23F00103BC
:1035C0001362674A664B1B6A23F0040313621CE014
:1035D0007B68DB68052B0CD1614A614B1B6A43F0A9
:1035E000040313625E4A5E4B1B6A43F001031362DD
:1035F0000BE05B4A5A4B1B6A23F001031362584AE3
:10360000574B1B6A23F0040313627B68DB68002BB3
:1036100015D0FFF721FB38610AE0FFF71DFB0246DA
:103620003B69D31A41F28832934201D9032393E0D4
:103630004B4B1B6A03F00203002BEED014E0FFF7A4
:103640000BFB38610AE0FFF707FB02463B69D31A20
:1036500041F28832934201D903237DE0404B1B6A3B
:1036600003F00203002BEED1FB7D012B05D13C4A78
:103670003B4BDB6923F08053D3617B68DB69002B14
:1036800069D0374B5B6803F00C03082B61D07B6873
:10369000DB69022B46D1344B00221A60FFF7DCFABB
:1036A000386108E0FFF7D8FA02463B69D31A022BCB
:1036B00001D9032350E02A4B1B6803F00073002B51
:1036C000F0D17B681B6AB3F5803F08D12449244BB5
:1036D0005B6823F400327B689B6813434B6020488F
:1036E0001F4B5B6823F474127B68196A7B685B6A02
:1036F0000B43134343601C4B01221A60FFF7ACFAE3
:10370000386108E0FFF7A8FA02463B69D31A022B9A
:1037100001D9032320E0124B1B6803F00073002B38
:10372000F0D018E0104B00221A60FFF795FA3861CC
:1037300008E0FFF791FA02463B69D31A022B01D940
:10374000032309E0064B1B6803F00073002BF0D144
:1037500001E0012300E0002318461837BD4680BD74
:1037600000100240007000406000424280B584B00A
:1037700000AF786039600023FB607E4B1B6803F06C
:1037800007023B689A4210D27A497A4B1B6823F0B1
:1037900007023B6813430B60764B1B6803F007027C
:1037A0003B689A4201D00123E0E07B681B6803F08C
:1037B0000203002B20D07B681B6803F00403002B5E
:1037C00005D06D4A6C4B5B6843F4E06353607B68E3
:1037D0001B6803F00803002B05D0674A664B5B6843
:1037E00043F4605353606449634B5B6823F0F00219
:1037F0007B689B6813434B607B681B6803F0010385
:10380000002B6AD07B685B68012B07D15A4B1B6881
:1038100003F40033002B15D10123A7E07B685B681C
:10382000022B07D1544B1B6803F00073002B09D106
:1038300001239BE0504B1B6803F00203002B01D1D6
:10384000012393E04C494C4B5B6823F003027B68F7
:103850005B6813434B60FFF7FFF9F8607B685B68B8
:10386000012B12D10AE0FFF7F7F90246FB68D31AE1
:1038700041F28832934201D9032377E03E4B5B68E3
:1038800003F00C03042BEED127E07B685B68022B6E
:103890001DD10AE0FFF7E0F90246FB68D31A41F2B6
:1038A0008832934201D9032360E0334B5B6803F015
:1038B0000C03082BEED110E0FFF7CEF90246FB68AF
:1038C000D31A41F28832934201D903234EE02A4BA6
:1038D0005B6803F00C03002BEED1264B1B6803F052
:1038E00007023B689A4210D92249224B1B6823F0F9
:1038F00007023B6813430B601E4B1B6803F0070273
:103900003B689A4201D0012330E07B681B6803F0DA
:103910000403002B08D01849174B5B6823F4E062BE
:103920007B68DB6813434B607B681B6803F008030C
:10393000002B09D01049104B5B6823F460527B6860
:103940001B69DB0013434B6000F01CF801460A4B77
:103950005B681B0903F00F03084AD35C21FA03F3E9
:10396000074A13600020FFF735F900231846103787
:10397000BD4680BD002002400010024020860008A5
:103980000400002090B48AB000AF2A4B3C1D0FCB3E
:1039900084E80F00284B1B883B800023FB61002339
:1039A000BB6100237B6200237B6100233B62234BCE
:1039B0005B68FB61FB6903F00C03042B02D0082B4E
:1039C00003D02DE01E4B3B622DE0FB699B0C03F006
:1039D0000F0307F12802134413F8243C7B61FB69B1
:1039E00003F48033002B13D0144B5B685B0C03F0A3
:1039F000010307F12802134413F8283CBB617B69DB
:103A00000F4A02FB03F2BB69B2FBF3F37B6204E0F3
:103A10007B690C4A02FB03F37B627B6A3B6202E038
:103A2000074B3B6200BF3B6A18462837BD4690BC37
:103A3000704700BF0C8600081C860008001002407A
:103A400000127A0000093D0080B400AF024B1B68F1
:103A50001846BD4680BC70470400002080B500AF0A
:103A6000FFF7F2FF0146054B5B681B0A03F00703F3
:103A7000034AD35C21FA03F3184680BD00100240CC
:103A80003086000880B500AFFFF7DEFF0146054B2A
:103A90005B68DB0A03F00703034AD35C21FA03F3F4
:103AA000184680BD001002403086000880B485B002
:103AB00000AF78600A4B1B680A4AA2FB03235B0A2B
:103AC0007A6802FB03F3FB6000BFFB685A1EFA60D2
:103AD000002BF9D100BF1437BD4680BC704700BF32
:103AE00004000020D34D621080B58AB002AFF860A8
:103AF000B9603B601346FB800023BB610023FB776A
:103B0000FB6893F85030012B01D1022323E1FB68BD
:103B1000012283F85020FFF79FF8B861FB6893F803
:103B20005130DBB2012B02D00223FB770AE1BB68E4
:103B3000002B02D0FB88002B02D10123FB7701E18F
:103B4000FB68032283F85120FB6800225A65FB685A
:103B5000BA681A63FB68FA889A86FB68FA88DA867C
:103B6000FB6800229A63FB6800229A87FB680022A8
:103B7000DA87FB6800225A64FB6800221A64FB683B
:103B80009B68B3F5004F07D1FB681B68FA681268A1
:103B9000126842F480421A60FB681B681B6803F0DD
:103BA0004003402B07D0FB681B68FA681268126854
:103BB00042F040021A60FB68DB68B3F5006F47D142
:103BC000FB685B68002B04D0FB68DB8E9BB2012B8B
:103BD00038D1FB681B68BA681288DA60BB680233A8
:103BE000BB60FB68DB8E9BB2013B9AB2FB68DA8656
:103BF00028E0FB681B689B6803F00203022B0FD1CF
:103C0000FB681B68BA681288DA60BB680233BB6065
:103C1000FB68DB8E9BB2013B9AB2FB68DA8611E04F
:103C20003B68002B0BD03B68B3F1FF3F0AD0FFF796
:103C300013F80246BB69D21A3B689A4202D30323A7
:103C4000FB777FE0FB68DB8E9BB2002BD1D148E095
:103C5000FB685B68002B04D0FB68DB8E9BB2012BFA
:103C60003AD1FB681B680C33BA6812781A70BB68CB
:103C70000133BB60FB68DB8E9BB2013B9AB2FB68F1
:103C8000DA8629E0FB681B689B6803F00203022BBD
:103C900010D1FB681B680C33BA6812781A70BB68C5
:103CA0000133BB60FB68DB8E9BB2013B9AB2FB68C1
:103CB000DA8611E03B68002B0BD03B68B3F1FF3F85
:103CC0000AD0FEF7C9FF0246BB69D21A3B689A4286
:103CD00002D30323FB7735E0FB68DB8E9BB2002B1E
:103CE000D0D1BB6900933B6801220221F86800F043
:103CF000C6FB0346002B02D00323FB7722E0BA6900
:103D00003968F86800F024FC0346002B05D0012335
:103D1000FB77FB6820225A6514E0FB689B68002B48
:103D20000AD100237B61FB681B68DB687B61FB6851
:103D30001B689B687B617B69FB685B6D002B01D016
:103D40000123FB77FB68012283F85120FB680022E6
:103D500083F85020FB7F18462037BD4680BD80B5D4
:103D600088B002AFF860B9603B601346FB80002367
:103D70003B610023FB75FB685B68B3F5827F12D162
:103D8000FB689B68002B0ED1FB68042283F851204E
:103D9000FA883B6800931346BA68B968F86800F07F
:103DA000ECF80346E5E0FB6893F85030012B01D1B5
:103DB0000223DEE0FB68012283F85020FEF74CFF6F
:103DC0003861FB6893F85130DBB2012B02D002233B
:103DD000FB75C5E0BB68002B02D0FB88002B02D12D
:103DE0000123FB75BCE0FB68042283F85120FB68CB
:103DF00000225A65FB68BA689A63FB68FA889A875A
:103E0000FB68FA88DA87FB6800221A63FB680022E5
:103E10009A86FB680022DA86FB6800221A64FB6837
:103E200000225A64FB689B68B3F5004F07D1FB681A
:103E30001B68FA681268126822F480421A60FB68F4
:103E40001B681B6803F04003402B07D0FB681B680E
:103E5000FA681268126842F040021A60FB68DB6878
:103E6000002B5BD12AE0FB681B689B6803F0010311
:103E7000012B11D1FB681B680C331B78DAB2BB68CD
:103E80001A70BB680133BB60FB68DB8F9BB2013BE0
:103E90009AB2FB68DA8711E03B68002B0BD03B68D5
:103EA000B3F1FF3F0AD0FEF7D7FE02463B69D21AB4
:103EB0003B689A4202D30323FB7551E0FB68DB8F1A
:103EC0009BB2002BCFD12EE0FB681B689B6803F0F0
:103ED0000103012B10D1FB681B68DB689AB2BB6839
:103EE0001A80BB680233BB60FB68DB8F9BB2013B6F
:103EF0009AB2FB68DA8711E03B68002B0BD03B6875
:103F0000B3F1FF3F0AD0FEF7A7FE02463B69D21A83
:103F10003B689A4202D30323FB7521E0FB68DB8FE9
:103F20009BB2002BD0D1FB685B68B3F5827F11D1C7
:103F3000FB689B68B3F5004F04D0FB689B68B3F542
:103F4000806F07D1FB681B68FA681268126822F05C
:103F500040021A60FB685B6D002B01D00123FB75EA
:103F6000FB68012283F85120FB68002283F850206F
:103F7000FB7D18461837BD4680BD80B58CB002AFBA
:103F8000F860B9607A607B800023FB610023BB612D
:103F900000237B6101237B62002387F82330FB68C9
:103FA00093F85030012B01D1022381E1FB680122FB
:103FB00083F85020FEF750FE7861FB6893F851308B
:103FC000DBB2FB61FB685B68BB61FB69012B0ED058
:103FD000BB69B3F5827F06D1FB689B68002B02D1D9
:103FE000FB69042B03D0022387F8233056E1BB681A
:103FF000002B05D07B68002B02D07B88002B03D1DF
:10400000012387F8233049E1FB6893F85130DBB294
:10401000012B03D1FB68052283F85120FB680022A5
:104020005A65FB687A689A63FB687A88DA87FB6866
:104030007A889A87FB68BA681A63FB687A88DA8696
:10404000FB687A889A86FB6800221A64FB68002263
:104050005A64FB681B681B6803F04003402B07D0C1
:10406000FB681B68FA681268126842F040021A6026
:10407000FB68DB68B3F5006F71D1FB685B68002BF0
:1040800004D0FB68DB8E9BB2012B5DD1FB681B6803
:10409000BA681288DA60BB680233BB60FB68DB8EEB
:1040A0009BB2013B9AB2FB68DA864DE07B6A002B3B
:1040B0001CD0FB68DB8E9BB2002B17D0FB681B6803
:1040C0009B6803F00203022B10D1FB681B68BA68DF
:1040D0001288DA60BB680233BB60FB68DB8E9BB280
:1040E000013B9AB2FB68DA8600237B62FB68DB8FB8
:1040F0009BB2002B18D0FB681B689B6803F0010380
:10410000012B11D1FB681B68DB689AB27B681A80AF
:104110007B6802337B60FB68DB8F9BB2013B9AB20A
:10412000FB68DA8701237B623B6BB3F1FF3F0BD067
:10413000FEF792FD02467B69D21A3B6B9A4203D38B
:10414000032387F82330A9E0FB68DB8E9BB2002BAA
:10415000ACD1FB68DB8F9BB2002BA7D171E0FB6871
:104160005B68002B04D0FB68DB8E9BB2012B5ED119
:10417000FB681B680C33BA6812781A70BB6801338D
:10418000BB60FB68DB8E9BB2013B9AB2FB68DA86B0
:104190004DE07B6A002B1DD0FB68DB8E9BB2002BB1
:1041A00018D0FB681B689B6803F00203022B11D137
:1041B000FB681B6803F10C02BB68591CB9601B78D3
:1041C0001370FB68DB8E9BB2013B9AB2FB68DA8608
:1041D00000237B62FB68DB8F9BB2002B17D0FB6850
:1041E0001B689B6803F00103012B10D17B685A1CEC
:1041F0007A60FA681268D268D2B21A70FB68DB8FF4
:104200009BB2013B9AB2FB68DA8701237B623B6B6E
:10421000B3F1FF3F0BD0FEF71FFD02467B69D21AB8
:104220003B6B9A4203D3032387F8233036E0FB68C5
:10423000DB8E9BB2002BACD1FB68DB8F9BB2002BDB
:10424000A7D17B6900933B6B01220221F86800F043
:1042500016F90346002B03D0032387F823301DE013
:104260007A69396BF86800F073F90346002B06D0C1
:10427000012387F82330FB6820225A650EE0FB6893
:104280009B68002B0AD100233B61FB681B68DB683D
:104290003B61FB681B689B683B613B69FB680122D3
:1042A00083F85120FB68002283F8502097F82330D0
:1042B00018462837BD4680BD80B588B000AF78600D
:1042C0007B681B685B68FB617B681B689B68BB61E4
:1042D000BB6903F04003002B0ED1BB6903F001035F
:1042E000002B09D0FB6903F04003002B04D07B684E
:1042F0001B6C786898479FE0BB6903F00203002BB2
:1043000009D0FB6903F08003002B04D07B685B6C51
:104310007868984790E0BB6903F06003002B00F0D9
:104320008B80FB6903F02003002B00F08580BB69C4
:1043300003F04003002B23D07B6893F85130DBB2AD
:10434000032B11D07B685B6D43F004027B685A65D8
:1043500000237B617B681B68DB687B617B681B6873
:104360009B687B617B690BE000233B617B681B687A
:10437000DB683B617B681B689B683B613B695BE07A
:10438000BB6903F02003002B14D07B685B6D43F006
:1043900001027B685A650023FB607B681B689B6891
:1043A000FB607B681B687A681268126822F0400222
:1043B0001A60FB687B685B6D002B3CD07B681B68D8
:1043C0007A681268526822F0E0025A607B68012223
:1043D00083F85120FB6903F00203002B04D1FB6931
:1043E00003F00103002B22D07B681B687A681268F7
:1043F000526822F003025A607B68DB6C002B08D005
:104400007B68DB6C0E4A5A637B68DB6C1846FEF7F0
:1044100057FD7B689B6C002B0CD07B689B6C084A1B
:104420005A637B689B6C1846FEF74AFD02E0786889
:1044300000F008F800BF00BF2037BD4680BD00BFB8
:104440005744000880B483B000AF786000BF0C37D9
:10445000BD4680BC704780B584B000AF78607B6893
:104460005B6AFB60FB680022DA87FB680022DA8661
:10447000F868FFF7E7FF00BF1037BD4680BD80B585
:1044800084B000AFF860B9607A603B604DE03B6893
:10449000B3F1FF3F49D03B68002B07D0FEF7DCFBB0
:1044A0000246BB69D21A3B689A423ED3FB681B683E
:1044B000FA681268526822F0E0025A60FB685B6892
:1044C000B3F5827F11D1FB689B68B3F5004F04D030
:1044D000FB689B68B3F5806F07D1FB681B68FA68BF
:1044E0001268126822F040021A60FB689B6AB3F5FA
:1044F000005F10D1FB681A68FB681B6819684DF6ED
:10450000FF730B401360FB681B68FA68126812683F
:1045100042F400521A60FB68012283F85120FB68C4
:10452000002283F8502003230EE0FB681B689A6882
:10453000BB681A40BB689A4201D1012200E0002208
:104540007B689A42A3D1002318461037BD4680BD30
:1045500080B586B002AFF860B9607A607B6800937E
:10456000BB6800228021F868FFF789FF0346002B13
:1045700007D0FB685B6D43F02002FB685A6503239C
:1045800000E0002318461037BD4680BD80B582B0DC
:1045900000AF78607B68002B01D1012356E07B6877
:1045A00000229A627B6893F85130DBB2002B02D173
:1045B0007868FEF777F97B68022283F851207B68E0
:1045C0001B687A681268126822F040021A607B68E1
:1045D0001B687A6851687A68926811437A68D26871
:1045E00011437A68126911437A68526911437A68F3
:1045F000926902F4007211437A68D26911437A68B1
:10460000126A11437A68926A0A431A607B681B68CF
:104610007A689269120C02F004017A68526A0A43BD
:104620005A607B681B687A68D26A1A617B681B686B
:104630007A681268D26922F40062DA617B6800222B
:104640005A657B68012283F85120002318460837F9
:10465000BD4680BD80B582B000AF78607B68002B1E
:1046600001D101231DE07B6893F83D30DBB2002BC4
:1046700006D17B68002283F83C207868FEF764F955
:104680007B68022283F83D207B681A687B680433CC
:104690001946104600F0E4F87B68012283F83D20BB
:1046A000002318460837BD4680BD80B584B000AFF2
:1046B000786039600023FB607B6893F83C30012B05
:1046C00001D10223C8E07B68012283F83C207B688B
:1046D000022283F83D207B681B689B68FB60FB68B7
:1046E00023F07703FB60FB6823F47F43FB607B6868
:1046F0001B68FA689A603B681B68402B77D0402B98
:104700000ED8102B00F08A80102B02D8002B7ED000
:1047100099E0202B00F08980302B00F08D8092E012
:10472000702B16D0702B04D8502B40D0602B4ED05D
:1047300089E0B3F5805F03D0B3F5005F24D082E059
:104740007B681B687A681268926822F007029A6098
:1047500079E07B6818683B6899683B685A683B68F1
:10476000DB6800F067F97B681B689B68FB60FB688F
:1047700023F07703FB60FB6843F07703FB607B6803
:104780001B68FA689A605EE07B6818683B68996805
:104790003B685A683B68DB6800F04CF97B681B6833
:1047A0007A681268926842F480429A604BE07B68B3
:1047B00018683B6859683B68DB681A4600F0B6F831
:1047C0007B681B685021184600F015F93BE07B68B8
:1047D00018683B6859683B68DB681A4600F0D8F8EF
:1047E0007B681B686021184600F005F92BE07B68A8
:1047F00018683B6859683B68DB681A4600F096F811
:104800007B681B684021184600F0F5F81BE07B68C8
:104810001B680021184600F0EEF814E07B681B6866
:104820001021184600F0E7F80DE07B681B68202196
:10483000184600F0E0F806E07B681B683021184657
:1048400000F0D9F800BF7B68012283F83D207B6827
:10485000002283F83C20002318461037BD4680BD57
:1048600080B485B000AF786039600023FB607B685E
:104870001B68FB607B682A4A93420BD07B68B3F1CC
:10488000804F07D07B68274A934203D07B68264A33
:10489000934208D1FB6823F07003FB603B685B68C0
:1048A000FA681343FB607B681D4A93420BD07B6818
:1048B000B3F1804F07D07B681A4A934203D07B68DC
:1048C000194A934208D1FB6823F44073FB603B68AC
:1048D000DB68FA681343FB60FB6823F08003FB602E
:1048E0003B685B69FA681343FB607B68FA681A608F
:1048F0003B689A687B68DA623B681A687B689A62F0
:104900007B68074A934203D13B681A697B681A6344
:104910007B6801225A6100BF1437BD4680BC7047D6
:10492000002C0140000400400008004080B487B023
:1049300000AFF860B9607A6000237B6100233B61BF
:10494000FB681B6A3B61FB681B6A23F00102FB6882
:104950001A62FB689B697B617B6923F0F0037B61D2
:104960007B681B017A6913437B613B6923F00A036F
:104970003B613A69BB6813433B61FB687A699A61A2
:10498000FB683A691A6200BF1C37BD4680BC70479D
:1049900080B487B000AFF860B9607A6000237B61B3
:1049A00000233B61FB681B6A23F01002FB681A625C
:1049B000FB689B697B61FB681B6A3B617B6923F435
:1049C00070437B617B681B037A6913437B613B699E
:1049D00023F0A0033B61BB681B013A6913433B61B1
:1049E000FB687A699A61FB683A691A6200BF1C37F2
:1049F000BD4680BC704780B485B000AF78600B4680
:104A00007B800023FB607B689B68FB60FB6823F076
:104A10007003FB607B8843F007039BB21A46FB6878
:104A20001343FB607B68FA689A6000BF1437BD4689
:104A300080BC704780B487B000AFF860B9607A601E
:104A40003B6000237B61FB689B687B617B6923F48F
:104A50007F437B613B681A027B681A43BB68134340
:104A60007A6913437B61FB687A699A6000BF1C37DF
:104A7000BD4680BC704780B483B000AF78603960B9
:104A80007B6893F83C30012B01D1022332E07B6834
:104A9000012283F83C207B68022283F83D207B685A
:104AA0001B687A681268526822F070025A607B684C
:104AB0001B687A68126851683A6812680A435A603B
:104AC0007B681B687A681268926822F080029A609C
:104AD0007B681B687A68126891683A6852680A4372
:104AE0009A607B68012283F83D207B68002283F86E
:104AF0003C20002318460C37BD4680BC704780B56B
:104B000082B000AF78607B68002B01D101233FE0C9
:104B10007B6893F83930DBB2002B06D17B6800222A
:104B200083F838207868FDF72BFF7B68242283F810
:104B300039207B681B687A681268D26822F40052B8
:104B4000DA60786800F040FB7B681B687A6812685E
:104B5000126922F490421A617B681B687A681268B5
:104B6000526922F02A025A617B681B687A681268CF
:104B7000D26842F40052DA607B680022DA637B6814
:104B8000202283F839207B68202283F83A200023F2
:104B900018460837BD4680BD80B588B002AFF860C2
:104BA000B9603B601346FB8000237B61FB6893F890
:104BB0003930DBB2202B40F08280BB68002B02D062
:104BC000FB88002B01D101237AE0FB6893F8383091
:104BD000012B01D1022373E0FB68012283F8382006
:104BE000FB680022DA63FB68212283F83920FEF794
:104BF00033F87861FB68FA889A84FB68FA88DA846B
:104C000041E0FB68DB8C9BB2013B9AB2FB68DA8423
:104C1000FB689B68B3F5805F21D13B6800937B699B
:104C200000228021F86800F066F90346002B01D0CD
:104C3000032345E0BB683B61FB681B683A69128847
:104C4000C2F308025A60FB681B69002B03D1BB68E2
:104C50000233BB6017E0BB680133BB6013E03B6805
:104C600000937B6900228021F86800F044F9034634
:104C7000002B01D0032323E0FB681A68BB68591C92
:104C8000B9601B785360FB68DB8C9BB2002BB8D1FA
:104C90003B6800937B6900224021F86800F02BF903
:104CA0000346002B01D003230AE0FB68202283F88F
:104CB0003920FB68002283F83820002300E002231B
:104CC00018461837BD4680BD80B588B000AF786003
:104CD0007B681B681B68FB617B681B68DB68BB61CA
:104CE0007B681B685B697B6100233B610023FB6081
:104CF000FB6903F00F033B613B69002B0DD1FB699E
:104D000003F02003002B08D0BB6903F02003002B25
:104D100003D0786800F0D6F9CCE03B69002B00F0B6
:104D2000AB807B6903F00103002B05D1BB6903F461
:104D30009073002B00F0A080FB6903F00103002BAF
:104D40000AD0BB6903F48073002B05D07B68DB6B52
:104D500043F001027B68DA63FB6903F00403002B74
:104D60000AD07B6903F00103002B05D07B68DB6B65
:104D700043F002027B68DA63FB6903F00203002B55
:104D80000AD07B6903F00103002B05D07B68DB6B45
:104D900043F004027B68DA63FB6903F00803002B2D
:104DA0000AD07B6903F00103002B05D07B68DB6B25
:104DB00043F008027B68DA637B68DB6B002B78D0FA
:104DC000FB6903F02003002B07D0BB6903F020032D
:104DD000002B02D0786800F075F97B681B685B696E
:104DE00003F04003002B14BF01230023DBB2FB6060
:104DF0007B68DB6B03F00803002B02D1FB68002B00
:104E000031D0786800F0C1F87B681B685B6903F0FB
:104E10004003002B23D07B681B687A6812685269B4
:104E200022F040025A617B685B6B002B13D07B68D9
:104E30005B6B224A5A637B685B6B1846FEF740F84F
:104E40000346002B16D07B685B6B5B6B7A68526BFA
:104E5000104698470EE0786800F044F80AE0786859
:104E600000F040F806E0786800F03CF87B6800222B
:104E7000DA631EE000BF1CE0FB6903F08003002B37
:104E800008D0BB6903F08003002B03D0786800F0E2
:104E9000ADF80FE0FB6903F04003002B0AD0BB69BB
:104EA00003F04003002B05D0786800F0F3F800BF52
:104EB00000E000BF2037BD4680BD00BFC54F0008E1
:104EC00080B483B000AF786000BF0C37BD4680BCB3
:104ED000704780B483B000AF786000BF0C37BD4628
:104EE00080BC704780B483B000AF786000BF0C37DF
:104EF000BD4680BC704780B584B000AFF860B96033
:104F00003B601346FB712CE0BB69B3F1FF3F28D037
:104F1000BB69002B07D0FDF79FFE02463B68D21A03
:104F2000BB699A421DD9FB681B68FA681268D2688F
:104F300022F4D072DA60FB681B68FA681268526962
:104F400022F001025A61FB68202283F83920FB68B5
:104F5000202283F83A20FB68002283F838200323BC
:104F60000FE0FB681B681A68BB681A40BB689A426E
:104F70000CBF01230023DBB21A46FB799A42C3D04F
:104F8000002318461037BD4680BD80B483B000AF03
:104F900078607B681B687A681268D26822F4907225
:104FA000DA607B681B687A681268526922F0010235
:104FB0005A617B68202283F83A2000BF0C37BD4637
:104FC00080BC704780B584B000AF78607B685B6A56
:104FD000FB60FB680022DA85FB680022DA84F8684F
:104FE000FFF780FF00BF1037BD4680BD80B485B09D
:104FF00000AF78607B6893F83930DBB2212B43D166
:105000007B689B68B3F5805F19D17B681B6AFB6086
:105010007B681B68FA681288C2F308025A607B68D2
:105020001B69002B05D17B681B6A9A1C7B681A627E
:105030000EE07B681B6A5A1C7B681A6208E07B687A
:105040001A687B681B6A581C796808621B78536071
:105050007B68DB8C9BB2013B9BB27A681946D1849A
:10506000002B0FD17B681B687A681268D26822F027
:105070008002DA607B681B687A681268D26842F046
:105080004002DA60002300E0022318461437BD46D0
:1050900080BC704780B582B000AF78607B681B68C9
:1050A0007A681268D26822F04002DA607B682022B7
:1050B00083F839207868FFF703FF00231846083784
:1050C000BD4680BD80B584B000AF78607B6893F842
:1050D0003A30DBB2222B71D17B689B68B3F5805FDD
:1050E00023D17B689B6AFB607B681B69002B0ED118
:1050F0007B681B685B689BB2C3F308039AB2FB68CA
:105100001A807B689B6A9A1C7B689A6229E07B689C
:105110001B685B689BB2DBB29AB2FB681A807B6843
:105120009B6A5A1C7B689A621BE07B681B69002B98
:105130000AD17B689B6A591C7A6891627A68126806
:105140005268D2B21A700CE07B689B6A591C7A686C
:1051500091627A6812685268D2B202F07F02D2B2CB
:105160001A707B68DB8D9BB2013B9BB27A68194653
:10517000D185002B20D17B681B687A681268D268C1
:1051800022F02002DA607B681B687A681268D268B5
:1051900022F48072DA607B681B687A681268526950
:1051A00022F001025A617B68202283F83A20786855
:1051B000FFF78FFE002302E0002300E002231846E1
:1051C0001037BD4680BD0000F0B585B000AF7860F7
:1051D0000023FB607B681B687A681268126922F4FE
:1051E00040517A68D2680A431A617B689A687B6882
:1051F0001B691A437B685B691343FA681343FB60BE
:105200007B681A687B681B68DB6823F4B05323F063
:105210000C03F9680B43D3607B681B687A681268DB
:10522000526922F440717A6892690A435A617B6834
:105230001B686F4A93426BD17B681C68FEF722FCA7
:10524000024613469B0013449A001A447B685B682D
:105250009B00B2FBF3F3674AA2FB03235B091D012A
:10526000FEF710FC024613469B0013449A001A44B2
:105270007B685B689B00B2FBF3F6FEF703FC02461B
:1052800013469B0013449A001A447B685B689B009A
:10529000B2FBF3F3574AA2FB03235B09642202FB30
:1052A00003F3F31A1B013233524AA2FB03235B09B7
:1052B00003F0F0031D44FEF7E5FB024613469B0096
:1052C00013449A001A447B685B689B00B2FBF3F6B8
:1052D000FEF7D8FB024613469B0013449A001A447B
:1052E0007B685B689B00B2FBF3F3424AA2FB03239B
:1052F0005B09642202FB03F3F31A1B0132333D4ABC
:10530000A2FB03235B0903F00F032B44A3606AE0B5
:105310007B681C68FEF7A2FB024613469B00134401
:105320009A001A447B685B689B00B2FBF3F3314A36
:10533000A2FB03235B091D01FEF790FB0246134607
:105340009B0013449A001A447B685B689B00B2FB85
:10535000F3F6FEF783FB024613469B0013449A00C4
:105360001A447B685B689B00B2FBF3F3214AA2FB03
:1053700003235B09642202FB03F3F31A1B0132339C
:105380001C4AA2FB03235B0903F0F0031D44FEF754
:1053900065FB024613469B0013449A001A447B683F
:1053A0005B689B00B2FBF3F6FEF758FB0246134620
:1053B0009B0013449A001A447B685B689B00B2FB15
:1053C000F3F30C4AA2FB03235B09642202FB03F301
:1053D000F31A1B013233074AA2FB03235B0903F0D4
:1053E0000F032B44A36000BF1437BD46F0BD00BFC0
:1053F000003801401F85EB51002103E00B4B5B5847
:10540000435004310A480B4B42189A42F6D30A4AD9
:1054100002E0002342F8043B084B9A42F9D3FDF71F
:105420008FFB00F015F8FDF73BF87047D08B0008B4
:10543000000000208006002080060020C007002019
:10544000FEE70000014B1868704700BF1000002005
:1054500070B500250C4E0D4CA41BA410A54209D11B
:1054600002F062FF00250A4E0A4CA41BA410A542BC
:1054700005D170BD56F8253098470135EEE756F84E
:10548000253098470135F2E7C88B0008C88B000823
:10549000C88B0008CC8B000810B5431E0A4491420B
:1054A00000D110BD11F8014B03F8014FF7E7034697
:1054B0000244934200D1704703F8011BF9E7000052
:1054C0000EB44FF4027100B59CB0ADF814106FF03B
:1054D0000041049107914FF6FF711DAB02900690B9
:1054E000084853F8042BADF81610006802A9019380
:1054F00000F00AF80022029B1A701CB05DF804EB61
:1055000003B07047100000202DE9F04FBFB089466E
:1055100015461F46824601F027FE03681846119380
:10552000FAF716FEB9F80C300A901B0618D5D9F810
:105530001030ABB94021504601F02CFEC9F80000F4
:10554000C9F8100048B90C23CAF800304FF0FF33F7
:105550000B930B983FB0BDE8F08F4023C9F814308F
:1055600000232EAC219423932293099507930D9346
:105570000E93159314930B9312931393099D2B463B
:1055800013F8012B12B1252A40F08380099BEE1AF3
:105590000DD084E84800239B33442393229B01339E
:1055A000072B229377DC08340B9B33440B932B7827
:1055B000002B00F025870023691C1A464FF0FF3BA3
:1055C0001D460A208DF867300C934E1C0978099609
:1055D000069106992039582900F21484DFE811F069
:1055E000A50012041204AA001204120412041204E8
:1055F00012041204AD0065001204B500B8001204D4
:10560000D500D800D800D800D800D800D800D800DD
:10561000D800D80012041204120412041204120456
:1056200012041204120412040C01220112042201B9
:105630001204120412041204EB00120412043C03BC
:1056400012041204120412041204A4031204120419
:10565000850012041204120412041204120412042B
:10566000120412041204FE006B0022012201220126
:10567000EE006B0012041204F10012041E033E033C
:105680007203F800120483031204A6031204120426
:10569000BE031D4673E721AA4946504602F082FA2E
:1056A000002840F08E862EAC7EE701232B2209993C
:1056B0008BE70F46FBE70BB18DF86720AE0640F194
:1056C000A180073727F0070707F108030893D7E9F8
:1056D0000067002E77F1000305DA2D23764267EB91
:1056E00047078DF867300123C7E20BB18DF86720BB
:1056F000A04B1593AB0640F13683073727F0070719
:1057000007F108030893D7E90067E8070BD556EAC5
:10571000070308D030238DF868309DF8183045F025
:1057200002058DF869300223A4E2002ABFD10123CB
:105730002022BCE745F00105B9E73E68391D002E7F
:105740000C96B6DA0F4676420C9645F00405AEE7A5
:1057500009994E1C09782A29069110D04FF0000BA8
:1057600009960699303909293FF633AF00FB0B1B28
:1057700009990E4616F8011B06910996F1E739685A
:10578000099641EAE17B043791E745F080058EE711
:1057900000210C9106990C9E303900FB06110C91EA
:1057A00009990E4616F8011B06910699099630399B
:1057B0000929EFD90DE745F0080578E745F04005E0
:1057C00075E7099909786C2905D109990131099181
:1057D00045F020056BE745F0100568E700263B1D06
:1057E00008933B688DF867608DF890304FF0010B9F
:1057F00037460DF190081CE10BB18DF8672045F09C
:1058000010055BE715F0100F07F1040303D03E68A5
:105810000893F7175DE73E6815F0400F089318BF2F
:1058200036B2F6E70BB18DF86720073727F0070788
:1058300007F1080308933B684FF0FF320D937B6834
:105840000D9F0E930E9B384623F0004631464A4B7F
:10585000FBF7D8F8002840F0DC854FF0FF32464BCC
:1058600038463146FBF7B0F8002840F0D285129A4E
:10587000139B0D980E99FBF79DF810B12D238DF811
:1058800067303E4B3E4A06994FF0030B4729CCBF89
:1058900090469846002625F080053746C9E0BBF1C2
:1058A000FF3F26D0069B23F02003472B04D1BBF1FA
:1058B000000F08BF4FF0010B45F4807317930E9B48
:1058C0001F1E0D9BA8BF10970F93BDBF3B4603F152
:1058D000004310930023B8BF2D231693069B23F09B
:1058E0002007462F08D0452F42D10BF10106022395
:1058F00004E04FF0060BDFE75E4603231FAA049285
:105900001CAA03921BAA02928DE848000F9A109BD2
:10591000504600F055FE472F804602D1E80740F17F
:10592000858508EB0603462F079311D198F80030C0
:10593000302B09D1129A139B0F981099FBF730F86E
:1059400010B9C6F101061B96079A1B9B1A440792D1
:10595000129A139B0F981099FBF722F890B93022F6
:105960001F9B079999420FD9591C1F911A70F7E78D
:105970005E46BCE748860008FFFFEF7F38860008D8
:105980003C860008079B1F931F9B472FA3EB080330
:10599000079340F000811B9BD91C02DB9B4580F2E2
:1059A0002681069B023B06931B9A9DF81810531EF6
:1059B000002BA8BF2B221B93BCBFC2F101032D22D9
:1059C000092B8DF874108DF8752040F300810A269C
:1059D0000DF1830293FBF6F006FB1033092803F167
:1059E000300302F8013C02F1FF31034600F3E88086
:1059F000303301F8013C023A0DF176030DF18300DA
:105A000082421946C0F0DE80079A1DABCB1A012AEC
:105A1000149303EB020B02DC15F0010702D0002700
:105A20000A9B9B44169B13B12D238DF867300026EB
:105A3000179D5E453346B8BF5B460F939DF86730B0
:105A400013B10F9B01330F9315F0020316931EBF82
:105A50000F9B02330F9315F08403179318D10C9BFF
:105A60000F9A9B1A002B109312DD109B102BAB4B3F
:105A7000236000F3D981109B109A6360239B134429
:105A80002393229B0133072B229300F3E6810834F2
:105A90009DF8673073B10DF16703236001236360E4
:105AA000239B01332393229B0133072B229300F383
:105AB000DE810834169B6BB11AAB2360022363604E
:105AC000239B02332393229B0133072B229300F362
:105AD000D8810834179B802B18D10C9B0F9A9B1AE6
