:020000040800F2
:100000000050002035340008D11C0008D31C000823
:10001000D51C0008D71C0008D91C000800000000EF
:10002000000000000000000000000000DB1C0008D1
:10003000DD1C000800000000DF1C0008E11C0008B7
:100040007D3400087D3400087D3400087D340008CC
:100050007D3400087D3400087D3400087D340008BC
:100060007D3400087D3400087D3400087D340008AC
:100070007D3400087D3400087D3400087D3400089C
:100080007D3400087D3400087D3400087D3400088C
:100090007D3400087D3400087D3400087D3400087C
:1000A0007D3400087D3400087D3400087D3400086C
:1000B0007D3400087D3400087D3400087D3400085C
:1000C0007D3400087D3400087D340008E51C0008FC
:1000D0007D340008F11C00087D3400087D340008E0
:1000E0007D3400087D3400087D34000800000000E5
:1000F0000000000000000000000000000000000000
:0C01000000000000000000005FF808F1A3
:1001100010B5054C237833B9044B13B10448AFF341
:1001200000800123237010BD740000200000000037
:10013000D03D000808B5034B1BB103490348AFF39A
:10014000008008BD0000000078000020D03D0008BD
:10015000034613F8012B002AFBD1181A0138704707
:1001600003685A004CBF43F0004323F00043184497
:10017000704700BF61B32DE9F84F01F1FF3A904697
:100180000646D146002707EB090404EBD47464103B
:10019000E50071190846FFF7E3FFA245834605F124
:1001A0000800304409D0FFF7DBFFC34500F1FF3002
:1001B00005D8404509D2671CE5E7C34505D9A742E4
:1001C00002D004F1FF39DEE700210846BDE8F88FD0
:1001D00008467047012807D0022807D0044B0028A2
:1001E0000CBF18460020704702487047024870470D
:1001F000E5080008E9080008ED08000830B5254BBF
:1002000083B004468D1E73B301A92846AFF3008066
:1002100018B301992A46FFF7ADFF0146E8B1FFF791
:100220009FFF4B68A064012B11D0002B22DB081D1F
:10023000FFF796FF0023E06423650368002B1EDBB5
:10024000FFF78EFF00232061184603B030BD052361
:1002500000221846226103B030BD0923002218464F
:10026000226103B030BD0C4B0C491846C91AC910A5
:100270000191CFE70123081DE0642365DDE7C3F3A7
:100280000360FFF7A7FF0028206114BF00230923A4
:10029000DAE700BF000000006442000814440008D0
:1002A000036810B5DA07044606D49B0700F148003E
:1002B00009D500F057FC2368590709D51A070ED550
:1002C000DB0613D510BD00F045FC23685907F5D4B3
:1002D00004F1D00000F04EFC23681A07F0D404F5B6
:1002E000A87000F04FFC2368DB06EBD404F5E8703F
:1002F000BDE8104000F08ABC036803B1034418460F
:10030000704700BF09207047704700BF70B50446B2
:100310000D4608E02A6C2369626121462A460120C5
:100320009847082808D1296C2046FFF767FF064642
:100330000028EFD003F001FD0728FBD13046296CDF
:10034000FFF7E2FF281D00F0F9FB00BF2DE9F047A1
:1003500005460027ADF5727D03AC0E1D92460FCE0B
:100360000FC40FCE0FC40FCE0FC496E80F00D5F800
:100370000C80D5F8189084E80F0002AC2846216C58
:100380002760FFF73BFFBAF1000F074614BF0A26AC
:1003900009267FB1A36B46F010018DE810022A46B2
:1003A000636401202B46C04778BB38460DF5727D4B
:1003B000BDE8F087236C4FF4F0726B6121467AA898
:1003C00003F088F82B697AAA294630469847889B1B
:1003D00082468DE81002314663642A462B4601208E
:1003E000C04790B94FF4F0727AA9204603F072F832
:1003F000BAF1080F06D1216C2846FFF7FFFE092647
:100400000746C6E7BAF1070F05D0092738460DF5AC
:10041000727DBDE8F0873846216CFFF775FF03A8B1
:1004200000F08CFB406C7047F0B54FF0FF3ECB6B9B
:10043000F9B00B640E1D01AD0F4604460FCE0FC57B
:100440000FCE0FC50FCE0FC596E80F0085E80F0041
:10045000CDF800E006E023696A462146984708285F
:10046000054608D110992046FFF7C8FE0028F2D0B3
:10047000092079B0F0BD6846FFF712FF062DF7D1CD
:1004800039462046FFF742FF30B4DD6BC160826120
:1004900019461D64002230BC58E700BF70B543699F
:1004A000C6680B6426B10122FFF750FF03F045FC3C
:1004B00003690A4604460D4601460220984707286C
:1004C00007D0082803D129462046FFF71FFF03F075
:1004D00034FC3046296CFFF717FF281D00F02EFB77
:1004E000C2682AB110B4CC6B00220C6410BC2DE79A
:1004F0009AE700BF704700BF836813B1014601202F
:100500001847704700B5042907D8DFE801F0030950
:10051000060909000BB90F2A05D902205DF804FB72
:1005200001205DF804FB00EB820252681846019B33
:100530001A605DF804FB00BF002310B584B003AC63
:100540000A4600941946FFF7DDFF039804B010BD7A
:1005500000B5042907D8DFE801F0030906090900FE
:100560000BB90F2A05D902205DF804FB01205DF8C4
:1005700004FB019900EB82020968184651605DF89E
:1005800004FB00BF002310B584B004AC44F8042D74
:1005900000940A461946FFF7DBFF04B010BD00BF08
:1005A000F0B54FF0FF3ED36BADF50F7D1364151D15
:1005B00017AC07460E460FCD0FC40FCD0FC40FCD9D
:1005C0000FC495E80F0084E80F00CDF858E012E062
:1005D0000C2116A86A46FFF7D5FF314616A8B84782
:1005E00078B9049B16AA694608209847052804464E
:1005F00008D0092805D026996846FFF7FFFD002896
:10060000E6D0092416A8FFF74BFE20460DF50F7D16
:10061000F0BD00BF2DE9F04FCC6C914622688BB045
:1006200004340D460792089400F0030B1E46002B7D
:1006300060D10323120207928DF825608DF82430D3
:100640002B6DBBF1020F08BFAC6B13F0010340D15F
:10065000019300F008030393D4F80080B8F1000F71
:1006600039D0022E43D0B4F8008067880434AB6CD4
:1006700027F0010A0F2148469A44FFF75DFF8245A3
:1006800033D828F001039A4450452CBF00200120A4
:100690007F0007F0020708F0010847EA0807012F6A
:1006A0003ED035D3022F1CD1236823F000420292A2
:1006B000BBF1000F76D128B1039900297ED0002A22
:1006C00000F0A680002B77DB029B013304EB830450
:1006D000C2E700230193022E3EDDFFF713FE002840
:1006E00040D009200BB0BDE8F08F0020D0E767684C
:1006F0000834BCE7022BA3DC0221130C8DF8253053
:100700001204DBB204EB830407928DF8241097E700
:10071000BBF1000F02D0002840F0BD8004349BE7FD
:10072000BBF1000F25D1A8B194E80C00991C4FEA49
:10073000D272D6D005F158010133069100F0A380A2
:10074000201DFFF7D9FD06AB01462846AFF3008018
:10075000002877D108347FE707A9484600F0F0FA6F
:100760000028BED1019B002B5CD108200BB0BDE856
:10077000F08F0D2148462F6AFFF7DEFE8742E9D150
:10078000AB6A9C42E6D12046FFF7EAFC0F21024605
:100790004846FFF7F7FE48462A460021FFF7F2FEDB
:1007A00007209FE70D2148462F6AFFF7C5FE8742C5
:1007B00058D02368002B87DA043485E7029B3BB3CB
:1007C00005F15803271DCDF810B0DDF80C80A346C5
:1007D000DDF808A01C46059602E0B245B04616D0EA
:1007E00038460694FFF788FD06AB014600222846EE
:1007F000AFF3008008F1010604370028EDD0029B1A
:100800005C464345DDF810B0059ED2D100E05C4661
:1008100048460D21FFF790FE069B2862AC626B6292
:1008200006205FE70F214846FFF786FE0E210246AD
:100830004846FFF7A7FE4846294A0F21FFF7A2FEC8
:1008400007204FE707460D214846FFF775FE022FA8
:1008500028621DD12B46069A43F82C2F6B62AC629E
:1008600006203FE7AB6A9C42A3D1042200270299ED
:10087000A318A962EF622A636B632368BB421DDB86
:100880000123019320E748460D21FFF755FE28621A
:10089000069B6B62E3E72046FFF762FC04340646E2
:1008A000AC632846AFF3008000283FF41AAF4846F7
:1008B00032460F21FFF766FE072013E70846013096
:1008C00004EB8000FFF74CFC0F2102464846FFF77F
:1008D00059FE48462A463946FFF754FE072001E7ED
:1008E00000000000002395E6012393E6022391E631
:1008F000F0B50446C5B004290DD8DFE801F0550372
:100900000C310F00012B4FEA124695B264D17219D7
:10091000102A40F29D80022045B0F0BD002BFAD194
:10092000102AF8D82368D80600F1C88022AE3046D5
:100930000192012500F074F90023A06B019A05FAD9
:1009400003F1114203D00168043046F8231001334B
:10095000042BF4D1A063304600F058F90020DBE707
:10096000032BD8D1150C97B2EB19102BD3D82368D1
:100970001E0700F1B78022AE304600F025F9ED00E9
:10098000A06B5FB1043D0346711900EBC70053F83B
:10099000042B834241F8042FF9D11846A063304656
:1009A00000F0F0F80020B7E7002BB4D10127A56BC9
:1009B00096B2201D07FA03F1314203F1010302D080
:1009C000296804350160102B00F10400F2D112F403
:1009D00000503BD1A5639FE7052B9CD17719202FB1
:1009E00099D80F2E66D92F46002D3AD12A460027D6
:1009F000002AA06B72DD00EBC202014644A800EBA6
:100A0000C6008C3851F8045B914240F8045FF9D17C
:100A1000084697B1102E324638BF102244A901EB88
:100A2000C202A2F5C4727900043A00EB810150F8C9
:100A3000045B884242F8045FF9D1012B48D00F2EA5
:100A4000A16333D917B102A800F094F8002063E73E
:100A50000F2E3FF660AF00272268D10717D4002F72
:100A600060D02268510745D4012B4DD00F2E06D8F7
:100A700022A8019300F07AF8019B002FB6D002A8BB
:100A8000019300F07BF8019BC6F11002B0E722F061
:100A90000101052B2160019320463BD022F0030287
:100AA00040F8482B00F05AF8019BD8E722A800F044
:100AB00059F8C7E7102FCED9103FCDE723F0100328
:100AC000236004F5E870019200F0AAF8019A2DE77E
:100AD0000431A16322A800F03DF8B7E7002F99D1B7
:100AE0000146AAE723F00803236004F5A87000F08C
:100AF0006BF840E7204622F0040240F8D02B019327
:100B000000F03CF8019BAFE722A8019300F026F823
:100B1000019BB9E741F0020140F8481B00F026F8BC
:100B2000019B9CE7012B03D00F2E3FF65FAF9FE7A1
:100B300022A8019300F012F8019B57E700F134015D
:100B400091E838009C46A6464CF8045D90E8FF0FFB
:100B5000E54600BD90EC210B704700BF80EC210BF7
:100B6000704700BF90EC200B704700BF80EC200B5B
:100B7000704700BFD0EC200B704700BFC0EC200BCB
:100B8000704700BFF0EC0201F0EC0211F0EC022122
:100B9000F0EC0231F0EC0241F0EC0251F0EC0261B9
:100BA000F0EC0271F0EC0281F0EC0291F0EC02A1A9
:100BB000F0EC02B1F0EC02C1F0EC02D1F0EC02E199
:100BC000F0EC02F1704700BFE0EC0201E0EC021132
:100BD000E0EC0221E0EC0231E0EC0241E0EC0251F9
:100BE000E0EC0261E0EC0271E0EC0281E0EC0291E9
:100BF000E0EC02A1E0EC02B1E0EC02C1E0EC02D1D9
:100C0000E0EC02E1E0EC02F1704700BFB0FC0181D2
:100C1000B0FC0191B0FC01A1B0FC01B1704700BF74
:100C2000A0FC0181A0FC0191A0FC01A1A0FC01B1EC
:100C3000704700BFEC4600B52DE900502DE9FF1FBD
:100C40004FF000032DE90C0001A9FFF7EDFBDDF8E3
:100C500040E012B0704700BFEC4600B52DE90050EF
:100C60002DE9FF1F4FF000032DE90C0001A9FFF74C
:100C700015FCDDF840E012B0704700BFEC4600B54F
:100C80002DE900502DE9FF1F4FF000032DE90C0066
:100C900001A9FFF725FCDDF840E012B0704700BF66
:100CA000EC4600B52DE900502DE9FF1F4FF0000381
:100CB0002DE90C0001ABFFF7E7FBDDF840E012B0D7
:100CC000704700BFEC4600B52DE900502DE9FF1F2D
:100CD0004FF000032DE90C0001AAFFF761FCDDF8DD
:100CE00040E012B0704700BF027A1AB9437A43B9A4
:100CF000B02070470368013A02721A020260180EAF
:100D0000704703214268013B10B443721368141DFD
:100D100001721A024460026010BC180E704700BFD6
:100D2000002300B585B003AA009219460C22FFF7F4
:100D3000E9FB039805B05DF804FB00BFF0E700BFD6
:100D40002DE9F04306460F464FF0000885B03846BF
:100D5000FFF7CAFFB028044623D0050627D4002396
:100D60000DF10C09194685000D22CDF80090304692
:100D7000FFF7C8FBEDB2039B600605F104054CBF0D
:100D80005D1BED1800230D221946CDF8009030466A
:100D90000395FFF7DDFB3846FFF7A6FFB0280446B2
:100DA000DBD1B8F1000F00F0948000201CE000F0CF
:100DB000F003802B5CD0902B19D0A02B2CD0B02B23
:100DC0003ED0C02B6BD000F0F803D02B0BD100F03D
:100DD0000702013242F40022052301213046FFF7C9
:100DE00087FD0028B3D0092005B0BDE8F08300F0EE
:100DF0000D030D2BF7D0002303AD00F00F021946B1
:100E000000953046FFF77EFB0023009519460D2222
:100E10003046FFF79DFB9AE7C3434FF47F6203F030
:100E200007031A410023010702F47F6248BF42F41E
:100E3000804219463046FFF75BFD0028D3D186E794
:100E4000B12857D0B22868D0B32800F0958000F0C0
:100E5000FC03B42BC7D0012300F007021A4442F46C
:100E6000002219463046FFF743FD0028BBD16EE74C
:100E70003846FFF739FF24020443B4F5004FB2D0DF
:100E800000232401A2B219463046FFF731FD0028A5
:100E9000A9D114F4004F18BF4FF0010857E7C62836
:100EA0007DD0C72800F0868000F0F803C02B00F04A
:100EB0009480C82800F09F80C92894D13846FFF755
:100EC00013FF020300F00F0002F47022013002430E
:100ED00082E703AC43460E22414600943046FFF7BA
:100EE00011FB0094304643460F224146FFF730FB8A
:100EF000404679E73846FFF7F7FE00283FF473AF26
:100F000010F0F0037FF46FAF024619463046FFF74A
:100F1000EFFC00287FF467AF19E700230DF10C09FF
:100F20000D221946CDF800903046FFF7EBFA38460F
:100F3000FFF7DAFE02064FF002040CD5039B00F027
:100F40007F00A040034438460393FFF7CDFE03061D
:100F500004F10704F2D40023039900F07F02A240B9
:100F600001F501718C18CDF8009019460D2230461C
:100F70000394FFF7EDFAEAE63846FFF7B5FE0123E2
:100F8000010300F00F0001F47021C2180A4330463B
:100F90001946FFF7ADFC00287FF425AFD7E63846A9
:100FA000FFF7A2FE010300F00F00032301F47021FC
:100FB000421CEBE73846FFF797FE00283FF413AFDB
:100FC00010F0F0037FF40FAF024604213046FFF724
:100FD0008FFC00287FF407AFB9E6032300F00F026F
:100FE000013242F4202219463046FFF781FC0028E6
:100FF0007FF4F9AEABE63846FFF776FE00F0F0027C
:1010000000F00F031032013343EA0232E4E600BF7E
:1010100030B503240D46C36C85B05A688DF80C407A
:10102000DC791202083301A9284601928DF80D409F
:101030000293FFF785FE05B030BD00BF08B5FFF78E
:101040007DFE806C08BD00BF08B5FFF777FEC06C61
:10105000C37900EB8300083008BD00BF08B502F07B
:101060006CFE00BF08B5FFF7F9FF00BF80B582B086
:1010700000AF78600B46FB707B6898687B689B8943
:10108000FA78194601F074F800BF0837BD4680BDF4
:1010900080B582B000AF78600B46FB707B68186843
:1010A0007B689B88FA78194601F062F800BF083720
:1010B000BD4680BD80B582B000AF78600021786801
:1010C000FFF7D4FF00BF0837BD4680BD80B582B0B2
:1010D00000AF786001217868FFF7C8FF00BF0837CC
:1010E000BD4680BD80B584B000AF78600B46FB7014
:1010F000FB7803F01F03DBB2BB737868FFF7DAFFFE
:101100007B68186907F10E014FF0FF33012201F0EF
:101110002AFB7B68186907F10F014FF0FF330122AA
:1011200001F0C7FC7868FFF7D1FFFB7B184610374A
:10113000BD4680BD80B588B002AFF8607A601A46BF
:101140000B46FB721346BB72FB7A03F01F03DBB244
:1011500043F02003DBB2BB75F868FFF7ABFFFB6819
:10116000186907F1170207F116014FF0FF330093DA
:10117000012301F0A1FBFB681869BB7A9AB24FF01A
:10118000FF33796801F095FCF868FFF79FFFFB7D5E
:1011900018461837BD4680BD80B59EB002AF786056
:1011A0000B46FB701346BB70FB7803F01F03DBB2EA
:1011B00043F02003DBB287F86E30FA78BB7807F192
:1011C0000800184902F09AF907F108031846FEF7DB
:1011D000BFFF03469AB207F108014FF0FF331248F0
:1011E00001F0E2FF7868FFF765FF7B68186907F197
:1011F0006F0207F16E014FF0FF330093012301F0FE
:101200005BFB7B681869B91C4FF0FF33012201F0CA
:10121000AAFA7868FFF75AFF97F86F3018467037C8
:10122000BD4680BDE83D00082801002080B5A2B081
:1012300002AFF860B96011461A460B46FB711346BF
:10124000BB71BB68BB67FB79FA68D27D934202DB56
:10125000FB68DB7D00E0FB79FB71FB681B7E002BEC
:1012600001D0002304E0FB68DA7DFB79D31ADBB2FE
:1012700087F87F30FA7997F87F3007F11000254919
:1012800002F03CF907F110031846FEF761FF034630
:101290009AB207F110014FF0FF331F4801F084FFAD
:1012A000F868FFF707FFFB68186907F17702B91DB7
:1012B0004FF0FF330093012301F0FEFAFB68186939
:1012C000FB799AB24FF0FF33B96F01F04CFA00236B
:1012D00087F8763097F87F305A1E87F87F20002BEA
:1012E00014BF01230023DBB2002B09D0FB6818696F
:1012F00007F176014FF0FF33012201F034FAE9E7FC
:10130000F868FFF7E3FE97F8773018468037BD4658
:1013100080BD00BF043E00082801002080B582B0D7
:1013200000AF7860E221786800F012F803461846B2
:101330000837BD4680BD80B582B000AF7860E1213E
:10134000786800F005F8034618460837BD4680BDAA
:1013500080B586B002AF78600B46FB707868FFF707
:10136000A9FE7B68186907F10F02F91C4FF0FF33E3
:101370000093012301F0A0FA7868FFF7A7FEFB7B3A
:1013800018461037BD4680BD80B582B000AF78608A
:10139000FF217868FFF7DCFF034618460837BD4693
:1013A00080BD80B485B000AFF860B9603B60134683
:1013B000FB80FB68BA681A60FB68FA889A80FB6851
:1013C0003A689A60FB683A8B9A81FB68FA691A61FD
:1013D000FB6800229A75FB682022DA75FB68002200
:1013E0001A76FB6805229A77FB6805225A62FB6829
:1013F00000225A76FB6818461437BD4680BC7047F9
:1014000080B584B000AF78600B46FB707D23FB7322
:10141000FB787C2B02DCFB1C1B7800E07D231A464A
:1014200005217868FFF7B8FE00BF1037BD4680BDC4
:1014300080B584B000AF78600023FB73002178682A
:10144000FFF726FE01217868FFF710FE052000F067
:10145000EDFC0C2200217868FFF79EFE0F2205218B
:10146000786800F0A1F90221786800F057F9034686
:10147000002B02D07B6801229A7506217868FFF75D
:1014800031FE0346FB730021786800F047F9786865
:1014900000F020F900221D217868FFF77DFE002270
:1014A0001C217868FFF778FE7B6800221A7670228C
:1014B00007217868FFF770FE4C217868FFF7A0FFDE
:1014C0007868FFF72BFF7868FFF735FF786800F042
:1014D0001AF800217868FFF705FE034623F00103A0
:1014E000DBB21A4600217868FFF756FEFB7B002B23
:1014F00004D0FB7BFF2B01D0012300E00023184622
:101500001037BD4680BD80B584B000AF7860002143
:101510007868FFF7E7FD0346FB73FB7B03F00203EC
:10152000002B0BD1FB7B43F00203DBB21A460021F8
:101530007868FFF731FE052000F078FC00BF103717
:10154000BD4680BD80B59CB000AF786007F10C034C
:101550000D4A1846114651231A4601F0BBFF07F108
:101560000C031846FEF7F4FD03469AB207F10C018E
:101570004FF0FF33054801F017FE7B680122DA7750
:1015800000BF7037BD4680BD3C40000828010020E8
:1015900080B588B002AFF860B96011461A460B46B4
:1015A000FB711346BB71B979FA79012300930B469D
:1015B000B968F86800F04EF800F032FC03467B6131
:1015C000F868FFF7E1FE034603F03003002B0CBF81
:1015D00001230023DBB2002B10D000F021FC0246D7
:1015E0007B69D31A5F2B8CBF01230023DBB2002B56
:1015F000E6D0F868FFF7A6FF002315E00021F868A1
:10160000FFF746FD70220721F868FFF7C5FD034686
:10161000FB74FB7C03F01003002B04D0F868FFF789
:101620008AFE002300E0012318461837BD4680BD1E
:1016300080B584B000AFF860B9601346FB71FA79E9
:101640000023B968F868FFF7A3FF03461846103770
:10165000BD4680BD80B584B000AFF860B96011466A
:101660001A460B46FB711346BB71BB79002B01D0A8
:10167000B02300E0A023FA79B968F868FFF7D6FD37
:101680003B7E002B03D00121F868FFF701FD00BF6E
:101690001037BD4680BD80B584B000AFF860C7E9A3
:1016A0000023FB689B7F3A460A21F868FFF742FD5A
:1016B000FB689B7F3A461021F868FFF73BFDFB680B
:1016C000DB7D1A461121F868FFF766FD00BF103771
:1016D000BD4680BD80B584B000AF78605023FB73F9
:1016E0007868FFF7E7FC7B68186907F10F014FF096
:1016F000FF33012201F037F87323FB737B6818690D
:1017000007F10F014FF0FF33012201F02CF8786848
:10171000FFF7DCFC00BF1037BD4680BD80B584B04C
:1017200000AF78600B46FB700023FB7306217868DE
:10173000FFF7D8FC0346BB73BB7B23F02803BB73C6
:101740007B68FA221A62FB78022B08D1BB7B43F03C
:101750002003BB737B684FF4E1721A6209E0FB78E7
:10176000012B06D1BB7B43F00803BB737B68BE2211
:101770001A62BB7B1A4606217868FFF70DFD062129
:101780007868FFF7AFFC03461A46BB7B93420CBF59
:1017900001230023DBB2002B01D00123FB73FB7B71
:1017A00018461037BD4680BD80B582B000AF786066
:1017B0000B46FB701346BB70FB781B015AB297F9BE
:1017C000023003F00F035BB213435BB2DBB21A4685
:1017D00004217868FFF7E0FC00BF0837BD4680BDF4
:1017E00090B58FB002AF00F0FDFA00F03DF800F0C8
:1017F0004FF900F089F800F0C3F800F01BF9384603
:10180000154B019310230093144B08221349FFF743
:10181000C8FD0FA418CCC7E90A343B461846FFF7A9
:1018200007FE39460AA3D3E900230846FFF733FF32
:101830003B4601220A491846FFF7FAFE4FF40051D1
:10184000084800F09AFC4FF47A7000F0EFFAEFE7E6
:10185000E1F0F0E8E80000009000002000080140FE
:10186000000000200010014080B590B000AF07F1EB
:10187000180328220021184601F037FE3B1D0022E4
:101880001A605A609A60DA601A610123BB614FF4F2
:101890008033FB614FF400333B620123BB620223C0
:1018A0007B634FF48033BB634FF45013FB6307F14A
:1018B0001803184600F066FC0346002B14BF0123F2
:1018C0000023DBB2002B01D000F042F90F237B6034
:1018D0000223BB600023FB604FF480633B61002365
:1018E0007B613B1D0221184600F014FE0346002BCD
:1018F00014BF01230023DBB2002B01D000F028F934
:1019000000BF4037BD4680BD80B500AF1A4B1B4AB3
:101910001A60194B4FF482725A60174B00229A607A
:10192000154B0022DA60144B00221A61124B002280
:101930005A61114B4FF400729A610F4B0822DA6121
:101940000D4B00221A620C4B00225A620A4B0022F5
:101950009A62094B0A22DA62074801F0BBF9034692
:10196000002B14BF01230023DBB2002B01D000F0B9
:10197000EFF800BF80BD00BF9000002000300140A4
:1019800080B586B000AF07F1080300221A605A60E4
:101990009A60DA603B4600221A605A60244B4FF08E
:1019A00080421A60224B00225A60214B00229A602A
:1019B0001F4B0022DA601E4B00221A611C4B0022D2
:1019C0009A611B4801F0B2FA0346002B14BF0123B1
:1019D0000023DBB2002B01D000F0BAF84FF48053A3
:1019E000BB6007F108031946114801F0AEF9034640
:1019F000002B14BF01230023DBB2002B01D000F029
:101A0000A7F800233B6000237B603B46194608484B
:101A100001F0A6FA0346002B14BF01230023DBB21A
:101A2000002B01D000F094F800BF1837BD4680BDF0
:101A3000E800002080B500AF134B144A1A60124B27
:101A40004FF4E1325A60104B00229A600E4B002294
:101A5000DA600D4B00221A610B4B0C225A610A4BC3
:101A600000229A61084B0022DA61074801F06EFB00
:101A70000346002B14BF01230023DBB2002B01D04F
:101A800000F066F800BF80BD28010020003801404A
:101A900080B588B000AF07F1100300221A605A60C9
:101AA0009A60DA60274A274B9B6943F010039361E1
:101AB000244B9B6903F01003FB60FB68214A214B18
:101AC0009B6943F0200393611E4B9B6903F0200345
:101AD000BB60BB681B4A1B4B9B6943F004039361CB
:101AE000184B9B6903F004037B607B6800224FF472
:101AF0000051154800F03CFB00221821134800F06B
:101B000037FB4FF400533B6101237B610023BB6132
:101B10000223FB6107F1100319460B4800F048FA55
:101B200018233B6101237B610023BB610223FB611E
:101B300007F110031946054800F03AFA00BF2037B4
:101B4000BD4680BD00100240001001400008014069
:101B500080B400AF00BFBD4680BC70470E4B82B062
:101B60009A6942F001029A619A6902F001020092B8
:101B7000009ADA6942F08052DA61DB69074A03F0C1
:101B800080530193019B536823F0E06343F000739B
:101B9000536002B0704700BF0010024000000140D7
:101BA00010B5044686B01022002102A801F09DFC69
:101BB00022681A4B9A422ED103F560439A6902A912
:101BC00042F480529A619A69154802F48052009258
:101BD000009A9A69002442F004029A619B6903F01A
:101BE00004030193019BA023029302230393032385
:101BF000059300F0DDF9402302A9094802930394FC
:101C0000049400F0D5F923202246214600F032F951
:101C1000232000F063F906B010BD00BF0030014082
:101C200000080140036882B0B3F1804F0AD103F588
:101C30000433DA6942F00102DA61DB6903F001037F
:101C40000193019B02B0704710B5044686B0102284
:101C5000002102A801F049FC22681B4B9A4230D1B6
:101C600003F558439A6902A942F480429A619A693D
:101C7000164802F480420092009A9A69002442F0C9
:101C800004029A619B6903F004030193019B4FF4E2
:101C900000730293022303930323059300F088F952
:101CA0004FF4806302A9094802930394049400F05E
:101CB0007FF925202246214600F0DCF8252000F09F
:101CC0000DF906B010BD00BF00380140000801400A
:101CD0007047FEE7FEE7FEE7FEE770477047704794
:101CE00000F092B8014800F085BF00BF90000020CE
:101CF000014801F0F7BA00BF280100200120704719
:101D000008B501F0BDFB162303604FF0FF3008BD9E
:101D100008B501F0B5FB16230360FEE708B50A4BD2
:101D20000246196809B909491960694618680244E8
:101D30008A4206D901F0A4FB0C2303604FF0FF3068
:101D400008BD1A6008BD00BF680100207C010020AA
:101D50000F4B1A6842F001021A6059680D4A0A4096
:101D60005A601A6822F0847222F480321A601A686B
:101D700022F480221A605A6822F4FE025A604FF45C
:101D80001F029A604FF00062034B9A60704700BFD9
:101D9000001002400000FFF800ED00E038B50E4BE7
:101DA000054618784FF47A73B3FBF0F30B4A1068CA
:101DB000B0FBF3F000F09EF8044658B90F2D09D897
:101DC000024629464FF0FF3000F054F8044B2046FD
:101DD0001D6038BD012038BD08000020040000202F
:101DE0000C000020074A08B51368032043F01003D5
:101DF000136000F02DF80020FFF7D0FFFFF7AEFED4
:101E0000002008BD00200240034A044B11681B78E3
:101E10000B441360704700BF7401002008000020CD
:101E2000014B1868704700BF7401002038B50446A4
:101E3000FFF7F6FF0546631C1EBF044B1B78E41832
:101E4000FFF7EEFF401B8442FAD838BD080000209F
:101E5000074A0002D36800F4E06023F4E0631B0447
:101E60001B0C43F0BF6343F400330343D36070475C
:101E700000ED00E0174B30B5DC68C4F30224C4F178
:101E80000703251D042B28BF0423062D4FF0010551
:101E900098BF002405FA03F303F1FF3388BF033C26
:101EA0001940A14005FA04F4013C2240002842EA0E
:101EB00001024FEA0212AFBF00F16040064B00F092
:101EC0000F00D2B2A5BFD2B200F561401A5480F81B
:101ED000002330BD00ED00E014ED00E001234209D5
:101EE00000F01F0003FA00F0014B43F82200704796
:101EF00000E100E00138B0F1807F0AD2F021064B0A
:101F0000064A586082F823100020072298601A6061
:101F100070470120704700BF10E000E000ED00E0D6
:101F200090F8213010B5022B03D0042383630120E5
:101F300010BD03681A6822F00E021A601A6822F0B7
:101F400001021A60184A93421FD0143293421ED0E5
:101F5000143293421DD0143293421DD01432934256
:101F60001DD0143293420CBF4FF480134FF0807396
:101F70000E4A00245360012380F82130436B80F81F
:101F800020407BB19847204610BD0123F0E7102385
:101F9000EEE74FF48073EBE74FF48053E8E74FF43C
:101FA0008033E5E7184610BD0800024000000240FB
:101FB0002DE9F74F00221646654BDFF8A4E1DFF864
:101FC000A4C14FF001080C6808FA06F808EA0404F6
:101FD000A0457FD14D68122D00F0AF8000F28880BF
:101FE000022D00F0A7807CD8002D00F08E80012DFE
:101FF00000F09E804FF00F09FF2C93BF824606F140
:102000008045083DD0F800B092BFB500D0F804B0CC
:10201000AD0009FA05F82BEA080802FA05F588BFB1
:1020200000F1040A48EA0505CAF80050D1F804A0F6
:102030001AF0805F4ED0474D464FAD6926F0030839
:1020400045F00105BD61BD6908F1804805F0010555
:10205000019508F5803806F0030B019D4FEA8B0BC4
:10206000D8F8085009FA0BF925EA09093A4DA842AF
:1020700068D005F58065A84266D005F58065A84260
:1020800064D005F58065A8420CBF0325042505FA38
:102090000BF545EA0905C8F808501D681AF4803F99
:1020A00014BF2543A5431D605D681AF4003F14BFAB
:1020B0002543A5435D609D681AF4801F14BF254326
:1020C000A5439D60DD681AF4001F14BF2C4325EA68
:1020D0000404DC600136102E7FF473AF03B0BDE85A
:1020E000F08F032D22D0112D84D1CA68043281E7EC
:1020F0001A4FBD4209D012D8DFF86C904D4504D07C
:1021000009F580394D457FF475AF8A68C2B1012A5F
:102110000CBFC0F81080C0F8148008226AE775452B
:10212000F3D06545F1D0DFF84490EBE7002261E79A
:10213000CA685FE7CA6808325CE7CA680C3259E7C8
:10214000042257E70025A2E70125A0E702259EE724
:10215000000401400010024000080140000021106E
:102160000000311000003210000011100000221099
:102170000AB1016170470904FBE7C3685940C160B7
:102180007047000003682DE9F341DB07054610D4D2
:102190002B689F075ED42B68190700F195802B6888
:1021A0005A0700F1BF80EA69002A40F02D81002023
:1021B00014E0904C636803F00C03042B07D06368B1
:1021C00003F00C03082B0CD16368DE0309D52368E8
:1021D0009C03DDD56B68002BDAD1012002B0BDE88D
:1021E000F0816B68B3F5803F10D1236843F48033EE
:1021F0002360FFF715FE064623689803C8D4FFF74F
:102200000FFE801B6428F7D90320E7E79BB92368FA
:1022100023F480332360236823F480232360FFF7B3
:10222000FFFD064623689903B2D5FFF7F9FD801B31
:102230006428F7D9E8E7B3F5A02F236803D143F466
:1022400080232360D1E723F480332360236823F4C1
:102250008023CDE7674C636813F00C0F07D06368E9
:1022600003F00C03082B10D16368DA030DD4236844
:102270009B0702D52B69012BAFD123686A6923F034
:10228000F80343EAC203236085E72A695A4B6AB11F
:1022900001221A60FFF7C4FD064623689F07ECD4AD
:1022A000FFF7BEFD801B0228F7D9ADE71A60FFF7E4
:1022B000B7FD0646236898077FF56DAFFFF7B0FDC1
:1022C000801B0228F6D99FE7AA694A4C4B4BDAB12A
:1022D00001221A60FFF7A4FD0646636A9B070DD52D
:1022E0004FF4FA52464B1B68B3FBF2F3019300BF65
:1022F000019B5A1E0192002BF9D150E7FFF790FD88
:10230000801B0228E9D97FE71A60FFF789FD06469E
:10231000636A9F077FF543AFFFF782FD801B0228AA
:10232000F6D971E7334CE369D80024D40127E36977
:1023300043F08053E361E36903F080530093009B13
:10234000304E3368D90518D5EB68012B26D1236AA6
:1023500043F001032362FFF763FD41F288368046B4
:10236000236A9B073FD5002F3FF41DAFE36923F09D
:102370008053E36117E70027E2E7336843F4807393
:102380003360FFF74DFD80463368DA05DCD4FFF794
:1023900047FDA0EB08006428F6D935E7ABB9236AFE
:1023A00041F2883823F001032362236A23F00403F7
:1023B0002362FFF735FD0646236A9807D3D5FFF75A
:1023C0002FFD801B4045F7D91EE7052B236A03D15B
:1023D00043F004032362BAE723F001032362236A74
:1023E00023F00403B6E7FFF71BFDA0EB0800B042A3
:1023F000B6D909E700100240000042428004424280
:102400000400002000700040224C636803F00C03BD
:10241000082B3FF4E2AE00231F4E022A33602BD17B
:10242000FFF7FEFC0746236899011FD42B6AB3F51A
:10243000803F05D16268A96822F400320A436260D5
:10244000696A62680B4322F47412134363600123C8
:102450003360FFF7E5FC054623689A013FF5A7AE18
:10246000FFF7DEFC401B0228F6D9CDE6FFF7D8FCCB
:10247000C01B0228D7D9C7E6FFF7D2FC0546236860
:102480009B017FF594AEFFF7CBFC401B0228F6D9E9
:10249000BAE600BF001002406000424230B5194B5E
:1024A00087B002AC03F1100522461868596808335A
:1024B00003C2AB421446F7D101238DF80430022346
:1024C00011498DF805304B6803F00C02082A17D12A
:1024D000C3F3834206A80244DB0312F8102C0CD588
:1024E0004B680A48C3F34043504306AA134413F809
:1024F000143CB0FBF3F007B030BD05485043FAE799
:102500000248F8E7AD4000080010024000127A00CF
:1025100000093D00544A2DE9F0411368054603F0D7
:1025200007038B420E462AD329688C0734D4CA0786
:1025300047D44D4A136803F007039E42C0F08280DF
:102540002A684A4C12F0040F40F08780130706D522
:1025500063682A6923F4605343EAC2036360FFF7A8
:102560009DFF6368424AC3F30313D35CD840414BD9
:1025700018600020FFF712FC0020BDE8F08113680E
:1025800023F007030B431360136803F0070399421A
:10259000CAD00120BDE8F081344B11F0040F1EBFFA
:1025A0005A6842F4E0625A60080742BF5A6842F42F
:1025B00060525A605A68A86822F0F00202435A60DA
:1025C000B5E76A68294C012A23681CD113F4003F3F
:1025D000DFD0636841F2883823F00303134363605C
:1025E000FFF71EFC6B680746012B14D1636803F0EC
:1025F0000C03042B9DD0FFF713FCC01B4045F5D9FD
:102600000320BDE8F081022A02D113F0007FDFE74A
:1026100013F0020FDCE7022B0FD1636803F00C0309
:10262000082B86D0FFF7FCFBC01B4045F5D9E7E738
:10263000FFF7F6FBC01B4045E2D8636813F00C0FB0
:10264000F6D176E7136823F007033343136013686A
:1026500003F007039E429CD172E76368E96823F4A4
:10266000E0630B43636071E700200240001002400A
:10267000BD40000804000020044B054A5B68C3F31A
:102680000223D35C034A1068D84070470010024010
:10269000CD40000804000020044B054A5B68C3F3EA
:1026A000C223D35C034A1068D84070470010024030
:1026B000CD400008040000202DE9F0410446884682
:1026C00017461D46069E2268936838EA03030CBF2E
:1026D000012300239F4202D10020BDE8F0816B1C42
:1026E000F2D055BB23685A6822F0E0025A60626853
:1026F000B2F5827F0AD1A268B2F5004F02D0B2F5DE
:10270000806F03D11A6822F040021A60A26AB2F503
:10271000005F09D11A6822F400521204120C1A60E8
:102720001A6842F400521A60012384F851300023E1
:10273000032084F85030BDE8F081FFF771FB801B67
:102740008542C0D8CEE713B50B4600928021002207
:102750000446FFF7B1FF20B10320636D43F020036F
:10276000636502B010BD2DE9FF411E4690F8503060
:102770000446012B0D46904600F09C80012380F812
:102780005030FFF74DFB074694F85100C0B20128C6
:1027900040F08E80002D4ED0B8F1000F4BD00323B7
:1027A00084F8513000236365A363A4F83680A387BF
:1027B000E38763642364A3682563B3F5004F23684C
:1027C000A4F8348002BF1A6842F480421A601A6882
:1027D00052065EBF1A6842F040021A60E268B2F523
:1027E000006F626838D11AB1E28E92B2012A06D126
:1027F00035F8022BDA60E38E013B9BB2E386E38E71
:102800009BB293B900973346012202212046FFF77D
:1028100053FF78B93A4631462046FFF794FF002827
:1028200038D020230120636505E023689A6890076B
:10283000DED44EB90320012384F85130002384F8FC
:10284000503004B0BDE8F081711CD8D0FFF7E8FA31
:10285000C01B8642D3D8EDE71AB1E28E92B2012AAC
:1028600006D115F8012B1A73E38E013B9BB2E38668
:10287000E38E9BB2002BC5D023689A689207F0D4F0
:10288000002ED7D0731CF3D0FFF7CAFAC01B8642C4
:10289000EED8CFE7A36833B903932368DA680392CD
:1028A0009B680393039B606D003018BF0120C2E753
:1028B0000220C0E70220C4E72DE9F043994690F8D2
:1028C000503085B0012B04460D4616460C9F00F093
:1028D000EE80012380F85030FFF7A2FA94F85130CF
:1028E0008046DBB2012B61680AD0B1F5827F40F0EF
:1028F000DC80A268002A40F0D880042B40F0D5800C
:10290000002D4ED0002E4CD0B9F1000F49D094F8D4
:102910005130A663012B04BF052384F851300023F6
:102920006365236463642368A4F83E90A4F836903A
:102930001A68A4F83C90500658BF1A68256358BF1F
:1029400042F04002A4F8349058BF1A60E268B2F531
:10295000006F5DD119B1E28E92B2012A06D135F82D
:10296000022BDA60E38E013B9BB2E3864FF0010954
:10297000E38E9BB2BBB9E38F9BB2A3B9CDF80080C5
:102980003B46012202212046FFF796FE002835D162
:10299000424639462046FFF7D6FE00287AD020234B
:1029A000636501202BE0B9F1000F0FD0E38E9BB2DD
:1029B00063B123689A68910708D54FF0000935F88C
:1029C000022BDA60E38E013B9BB2E386E38F9BB27E
:1029D00063B123689A68D20708D54FF00109DB6814
:1029E00026F8023BE38F013B9BB2E387781CBFD004
:1029F000FFF716FAA0EB08008742B9D8032001239D
:102A000084F85130002384F8503005B0BDE8F083DD
:102A100019B1E28E92B2012A06D115F8012B1A7370
:102A2000E38E013B9BB2E3864FF00109E38E9BB23C
:102A30001BB9E38F9BB2002BA0D0B9F1000F0FD0D0
:102A4000E38E9BB263B123689A68910708D54FF073
:102A500000092A7801351A73E38E013B9BB2E386A5
:102A6000E38F9BB26BB123689A68D20709D54FF008
:102A70000109DB68013606F8013CE38F013B9BB29C
:102A8000E3877B1CD2D0FFF7CBF9A0EB080087428D
:102A9000CCD8B3E7A368002BB1D123680390DA68E0
:102AA00003929B680393039BA9E70220A7E70220F8
:102AB000ABE72DE9F3411E4643680446B3F5827F38
:102AC0000D4690460CD1836853B9042380F85130E9
:102AD000134600960A46FFF7EFFE02B0BDE8F0810C
:102AE00094F85030012B00F08180012384F850309D
:102AF000FFF796F9074694F85100C0B2012873D148
:102B0000002D58D0B8F1000F55D0042384F851306F
:102B1000002363652363A4F83E80A386E3862364D1
:102B20006364A368A563B3F5004F2368A4F83C80F1
:102B300002BF1A6822F480421A601A6852065EBF09
:102B40001A6842F040021A60E368CBB1E38F9BB28F
:102B5000D3B123689A68D2073CD5DB6825F8023BDD
:102B6000E38F013B9BB2E387F0E723689A68D007C5
:102B70001FD51B7B05F8013BE38F013B9BB2E3872D
:102B8000E38F9BB2002BF0D16368B3F5827F0BD14A
:102B9000A368B3F5004F02D0B3F5806F04D122686B
:102BA000136823F040031360606D003018BF0120EC
:102BB00001E03EB90320012384F85130002384F85A
:102BC00050308AE7711CDBD0FFF72AF9C01B864220
:102BD000D6D8EFE7002EEDD0731CB7D0FFF720F961
:102BE000C01B8642B2D8E5E70220E4E7022074E782
:102BF00070470000036830B559689A6885B002F0E4
:102C00004105012D044605D14D0603D5036C9847B7
:102C100005B030BD900704D50D0602D5636C204683
:102C2000F5E712F0600FF3D08806F1D555060ED502
:102C300094F851000025032836D0606D40F0040060
:102C400060650195D8680190986801900198900698
:102C50000CD5626D42F001026265002203929A680F
:102C600003921A6822F040021A60039A626D002AE9
:102C7000CED05A6822F0E0025A60012284F8512036
:102C80008A0718D05A68E06C22F003025A6018B123
:102C90000B4B4363FFF744F9A06C0028B8D0084BF6
:102CA0004363FFF73DF9B3E70295DA6802929B6848
:102CB0000293029BACE72046FFF79AFFA8E700BF0C
:102CC000C52C000808B50023406AC387C386FFF7F8
:102CD0008FFF08BD10B50446002834D0002383625E
:102CE00090F851300BB9FEF75BFF0223216884F89E
:102CF00051300B68A06823F040030B606368A26941
:102D00000343E06803432069034360690343E069C8
:102D10000343206A0343A06A034302F400700343A1
:102D20000B60120C636A02F004021A43E36A4A6001
:102D30000B61CB69002023F40063CB610123606544
:102D400084F8513010BD012010BD90F83C3070B5B2
:102D5000012B4FF002031CD0012280F83D300368A4
:102D600080F83C209A6822F47F4222F077029A6031
:102D70000A68402A79D019D8102A00F093800AD81E
:102D8000002A00F08980012380F83D30002380F87C
:102D90003C30184670BD202A00F08A80302AF2D1DB
:102DA0009A6822F0700242F0370236E0702A36D07C
:102DB0001BD8502A42D0602AE5D11C6A4D6824F005
:102DC0001004CE681C6299691A6A21F4704122F0DD
:102DD000A00242EA051241EA063199611A629A6834
:102DE00022F0700242F0670217E0B2F5805F11D066
:102DF000B2F5005FC7D18A684D689C68C9682A43EC
:102E000024F47F4442EA012222439A609A6842F401
:102E1000804202E09A6822F007029A60B3E78A686B
:102E20004D689C68C9682A4324F47F4442EA012221
:102E300022439A609A6842F07702EEE74C68CE68C7
:102E4000196A1D6A21F00A0125F001051D629A69BF
:102E5000214322F0F00242EA06129A6119629A684E
:102E600022F0700242F05702D7E74C68CE68196A28
:102E70001D6A21F00A0125F001051D629A692143AE
:102E800022F0F00242EA06129A6119629A6822F070
:102E9000700242F04702C0E79A6822F0700242F0E6
:102EA0000702BAE79A6822F0700242F01702B4E70C
:102EB0009A6822F0700242F02702AEE71A4A0368CD
:102EC00090420AD0B0F1804F07D0A2F594329042E0
:102ED00003D002F58062904215D14A6823F0700356
:102EE0001343114A90420AD0B0F1804F07D0A2F5A7
:102EF0009432904203D002F58062904203D1CA68B6
:102F000023F4407313434A6923F08003134303609F
:102F10008B68C3620B688362034B984204BF0B69E2
:102F20000363012343617047002C014010B5044640
:102F3000A0B190F83D3003F0FF021BB980F83C20AF
:102F4000FEF770FE0223206884F83D30211DFFF754
:102F5000B5FF0123002084F83D3010BD012010BDD5
:102F600090F83C3010B5012B4FF0020318D080F8D8
:102F70003D3003680C685A68496822F070025A6054
:102F80005A6822435A609A6822F080029A609A68CE
:102F90000A439A60012380F83D30002380F83C30DA
:102FA000184610BD0368DA6822F49072DA605A6934
:102FB00022F001025A61202380F83A307047000065
:102FC0002DE9F0470568C2682B69016923F4405375
:102FD00013432B618368EA680B43416922F4B052C2
:102FE00022F00C020B431343EB606B69826923F4FC
:102FF000407313436B61404B81469D424FF019046F
:1030000046D1FFF749FB04FB00F3D9F804604FF009
:103010006408B600B3FBF6F3B3FBF8F31E01FFF749
:103020003BFB6043D9F804309B00B0FBF3F7FFF79C
:1030300033FB6043D9F804309B00B0FBF3F3B3FBE0
:10304000F8F308FB13731B013233B3FBF8F303F0FF
:10305000F007FFF721FB6043D9F804209200B0FB92
:10306000F2FAFFF719FB6043D9F804309B00B0FB7C
:10307000F3F3B3FBF8F308FB13A31B013233B3FBE9
:10308000F8F303F00F033B433344AB60BDE8F08734
:10309000FFF7F2FA04FB00F3D9F804604FF064087C
:1030A000B600B3FBF6F3B3FBF8F31E01FFF7E4FA47
:1030B0006043D9F804309B00B0FBF3F7FFF7DCFA6C
:1030C0006043D9F804309B00B0FBF3F3B3FBF8F393
:1030D00008FB13731B013233B3FBF8F303F0F00763
:1030E000FFF7CAFA6043D9F804209200B0FBF2FA65
:1030F000FFF7C2FAB7E700BF00380140F8B5044651
:103100000E4617461D4621680B6836EA030301D1B7
:103110000020F8BD6B1CF7D095B923680320DA684E
:1031200022F4D072DA605A6922F001025A61202337
:1031300084F8393084F83A30002384F83830F8BD08
:10314000FEF76EFEC01B8542DDD2E6E710B50446F1
:1031500040B390F8393003F0FF021BB980F83820F3
:10316000FEF772FD2423226884F83930D3682046A4
:1031700023F40053D360FFF723FF236800201A696C
:1031800022F490421A615A6922F02A025A61DA68DE
:1031900042F40052DA602023E06384F8393084F886
:1031A0003A3010BD012010BD2DE9F0411F4690F8C6
:1031B00039300446202B0D4690464ED1002949D087
:1031C000002A47D090F83830012B46D0012380F8F0
:1031D00038300023C363212380F83930FEF720FE06
:1031E0000646A4F82480A4F82680E38C9BB26BB931
:1031F0003B46324640212046FFF780FFA8B92023F6
:1032000084F8380084F83930BDE8F081E38C324628
:10321000013B9BB2E384A3688021B3F5805F204625
:103220003B460ED1FFF76AFF10B10320BDE8F081E5
:103230002B882268C3F308035360236943B902351E
:10324000D3E7FFF75BFF0028EFD123682A785A60A5
:103250000135CAE70120BDE8F0810220BDE8F08118
:103260007047704790F83A3010B5222B36D18368FA
:103270000169B3F5805F0268836A23D15268E9B9B6
:10328000C2F3080223F8022B8362C48D013CA4B26E
:10329000C4858CB90368DA6822F02002DA60DA6843
:1032A00022F48072DA605A6922F001025A61202306
:1032B00080F83A30FFF7D5FF002010BDD2B223F8D6
:1032C000012BE1E721B9591C526881621A70DCE7D1
:1032D0005268591C816202F07F02F7E7022010BD9C
:1032E00070470000036870B51A6804461607D9686D
:1032F0005D6907D196065AD58D0658D5BDE8704050
:10330000FFF7B0BF15F0010502D111F4907F4ED048
:10331000D30705D5CE0542BFE36B43F00103E3635A
:10332000500704D51DB1E36B43F00203E363930739
:1033300004D51DB1E36B43F00403E363160704D522
:103340001DB1E36B43F00803E363E36B002B66D02E
:10335000950604D5880602D52046FFF783FF23682B
:1033600020465D69E26B110702D415F040051AD0C2
:10337000FFF718FE23685A69520610D55A69606B28
:1033800022F040025A6150B1254B4363FEF7C8FD5D
:10339000002844D0606BBDE87040436B184720465E
:1033A000FFF79EFF70BDFFF79BFFE56370BD16063C
:1033B00027D50D0625D594F83920212A2FD1A268CA
:1033C000B2F5805F226A17D11188C1F308015960F4
:1033D000216979B902322262E28C013A92B2E28426
:1033E000EAB9DA6822F08002DA60DA6842F0400274
:1033F000DA6070BD0132EEE7511C216212785A602A
:10340000EAE750060BD54A0609D5DA68204622F0CD
:103410004002DA60202384F83930FFF721FF70BDC5
:103420002534000808B50023406AC385C384FFF72C
:1034300057FF08BD002103E00B4B5B58435004319C
:103440000A480B4B42189A42F6D30A4A02E000237C
:1034500042F8043B084B9A42F9D3FEF779FC00F09E
:1034600015F8FEF7BDF970471C4400080000002065
:1034700074000020740000207C010020FEE70000A2
:10348000014B1868704700BF1000002070B5002580
:103490000C4E0D4CA41BA410A54209D100F098FCC1
:1034A00000250A4E0A4CA41BA410A54205D170BDEC
:1034B00056F8253098470135EEE756F825309847FD
:1034C0000135F2E7144400081444000814440008CD
:1034D0001844000810B5431E0A44914200D110BDA3
:1034E00011F8014B03F8014FF7E7034602449342FA
:1034F00000D1704703F8011BF9E700000EB44FF448
:10350000027100B59CB0ADF814106FF00041049149
:1035100007914FF6FF711DAB02900690084853F8D3
:10352000042BADF81610006802A9019300F066F8AC
:103530000022029B1A701CB05DF804EB03B07047C8
:10354000100000202DE9F0478E6882469E420C460E
:103550009146984635D88A8912F4906F31D002236B
:10356000256809696F1A656905EB450595FBF3F553
:1035700008F101033B449D4238BF1D46530531D538
:10358000294600F03BFB064650B90C23CAF8003030
:10359000A3894FF0FF3043F04003A381BDE8F087DB
:1035A0003A462169FFF796FFA38923F4906343F01D
:1035B0008003A38126613E44266046466561ED1B7B
:1035C000A560464528BF464649463246206800F079
:1035D000AFFAA36800209B1BA36023681E442660EB
:1035E000BDE8F0872A4600F067FB06460028E1D1D7
:1035F0002169504600F0B6FAC7E700002DE9F04F08
:103600009DB003938B8980461C060D4616460FD548
:103610000B696BB9402100F0F1FA2860286128B9E4
:103620000C23C8F800304FF0FF30C4E040236B613A
:103630000023099320238DF8293030234FF0010B0C
:103640008DF82A3037463C4614F8013B002B3CD11C
:10365000B7EB060A0BD05346324629464046FFF7E1
:1036600071FF013000F0A280099B534409933B781D
:10367000002B00F09B8000234FF0FF320493079350
:10368000059206938DF853301A93052221785048FD
:1036900000F040FA671C049BD8B9D90644BF202229
:1036A0008DF853201A0744BF2B228DF8532022781F
:1036B0002A2A16D000210A20079A27463B7801348F
:1036C000303B092B50D9C9B111E0252BC0D027467A
:1036D000B9E73F4A3C46801A0BFA00F018430490C1
:1036E000D3E7039A111D12680391002A01DB0792A8
:1036F00004E0524243F00203079204933B782E2BDE
:103700000DD17B78791C2A2B32D1039B02371A1DED
:103710001B680392002BB8BF4FF0FF3305932D4C6D
:1037200003223978204600F0F5F938B14023001B18
:1037300003FA00F0049B013703430493397806220F
:1037400025487E1C8DF8281000F0E4F9002835D0BB
:10375000224BFBB9039B073323F007030833039382
:10376000099B4B4409936DE700FB02320121A4E75A
:1037700000230A24184605930F463A780131303A5F
:10378000092A03D9002BCAD00590C8E704FB002002
:103790000123F1E703AB00932A46114B04A94046ED
:1037A000AFF30080B0F1FF3F8146D9D1AB895B0612
:1037B0003FF539AF09981DB0BDE8F08F03AB00931A
:1037C0002A46074B04A9404600F084F8EAE700BF08
:1037D000D5400008DB400008DF4000080000000082
:1037E000453500082DE9F04791461F468A680B6968
:1037F00006469342B8BF1346C9F8003091F84320FB
:103800000C46DDF8208012B10133C9F8003023687E
:10381000990642BFD9F800300233C9F80030256854
:1038200015F0060507D104F1190AE368D9F800205C
:103830009B1A9D422ADB94F843302268003318BF5C
:10384000012392062FD404F1430239463046C04783
:10385000013022D02368E56803F00603042B18BF6B
:103860000025D9F800204FF0000908BFAD1AA36861
:10387000226908BF25EAE5759342C4BF9B1AED187B
:103880001A344D451BD10020BDE8F0870123524674
:1038900039463046C047013003D14FF0FF30BDE814
:1038A000F0870135C1E73020E11881F843005A1C48
:1038B00094F845102244023382F84310C3E70123F1
:1038C000224639463046C0470130E6D009F10109A9
:1038D000D7E700002DE9F04317460A7E85B06E2A2F
:1038E000984606460C460C9B01F1430E00F0BC8046
:1038F0001AD8632A2ED00AD8002A00F0C880582A85
:1039000000F08A8004F1420584F842202AE0642A0B
:1039100001D0692AF6D121681A6811F0800F23D0EE
:10392000111D1960136827E0732A00F0B48008D8CD
:103930006F2A2AD0702AE5D10A6842F020020A6074
:1039400003E0752A21D0782ADCD178226F4984F8E7
:10395000452064E01A6801F14205111D19601368E1
:1039600084F842300123A3E011F0400F02F104017A
:103970001960D7D0B2F90030002B03DA2D225B4258
:1039800084F8432062490A2217E02068196810F081
:10399000800F03D0081D18600B6806E010F0400F80
:1039A00001F104001860F7D00B886F2A14BF0A22B7
:1039B00008225749002084F843006568002DA5605F
:1039C000C0F29C80206820F004002060002B3FD1D2
:1039D000002D40F095807546082A0BD12368DA0740
:1039E00008D5236962689A42DEBF302305F8013C9E
:1039F00005F1FF35AEEB05032361CDF800803B46B2
:103A000003AA21463046FFF7EDFE013055D14FF0B5
:103A1000FF3005B0BDE8F08381F845203C492268BD
:103A2000186812F0800F00F104051D6001D00368D2
:103A300002E05506FBD50388D00744BF42F02002C0
:103A400022601BB9226822F0200222601022B1E716
:103A50007546B3FBF2F002FB1033CB5C05F8013D79
:103A600003460028F5D1B7E708681A6810F0800F00
:103A7000496904D0101D18601368196007E010F040
:103A8000400F02F1040018601368F6D0198000237B
:103A900075462361B1E71A68111D19601568002188
:103AA0006268284600F036F808B1401B6060636821
:103AB0002361002384F843309FE723692A4639466F
:103AC0003046C0470130A2D023689B0707D50025A8
:103AD00004F11909E368039A9B1A9D4205DBE0682B
:103AE000039B9842B8BF184693E701234A463946DC
:103AF0003046C04701308AD00135EBE7002BA7D113
:103B00000B7804F1420584F8423065E7F74000087D
:103B1000E640000810B5C9B202449042034601D104
:103B2000002010BD1C7801308C42F6D1184610BD23
:103B3000884210B501EB020303D8421E99420CD112
:103B400010BD9842F9D28118D21AD34200D110BDCB
:103B500013F8014D01F8014DF7E711F8014B02F898
:103B6000014FEBE738B50546002943D051F8043C36
:103B70000C1F002BB8BFE41800F0D4F81E4A1368DD
:103B8000104633B9636014602846BDE8384000F041
:103B9000CAB8A3420BD921686218934201BF1A68C0
:103BA0005B685218226063600460EDE713465A6850
:103BB0000AB1A242FAD919685818A0420BD120685C
:103BC0000144581882421960DED1106852680144DD
:103BD00019605A60D8E702D90C232B60D4E720681B
:103BE00021188A4201BF1168526809182160626079
:103BF0005C60C9E738BD00BF6C01002070B5CD1C0A
:103C000025F0030508350C2D38BF0C25002D064680
:103C100001DBA94203D90C233360002070BD00F002
:103C200081F8234A1468214691B9224C23681BB9B4
:103C3000304600F067F820602946304600F062F810
:103C4000431C26D10C233046336000F06CF8E4E7C7
:103C50000B685B1B1AD40B2B0FD90B60CC18CD5003
:103C6000304600F060F804F10B00231D20F007003F
:103C7000C31A1BD05A42E25070BD8C420BBF63681E
:103C80004B681360636018BF0C46E9E70C4649684F
:103C9000CAE7C41C24F00304A04205D0211A304610
:103CA00000F030F80130CDD02560D9E770BD00BFFD
:103CB0006C01002070010020F8B5074614460E463E
:103CC00021B91146BDE8F840FFF798BF22B9FFF7C8
:103CD00049FF25462846F8BD00F026F884420FD952
:103CE00021463846FFF78AFF05460028F2D03146C4
:103CF0002246FFF7EFFB31463846FFF733FFE9E78F
:103D00003546E7E738B50023054C054608462360ED
:103D1000FEF704F8431C02D1236803B12B6038BDC1
:103D2000780100207047704751F8040C0028A0F17A
:103D30000400BCBF0B58C018704708B5062000F03F
:103D40002BF80120FDF7E4FF1F2938B504460D4686
:103D500004D9162303604FF0FF3038BD426C12B116
:103D600052F821304BB9204600F030F82A4601467F
:103D70002046BDE8384000F017B8012B0AD0591C86
:103D800003D116230360012038BD0024284642F8E1
:103D900025409847002038BD024B01461868FFF7C0
:103DA000D3BF00BF1000002038B50023064C0546E5
:103DB000084611462360FDF7A3FF431C02D1236888
:103DC00003B12B6038BD00BF78010020FDF796BF1E
:103DD000F8B500BFF8BC08BC9E467047F8B500BFF8
:083DE000F8BC08BC9E467047C8
:103DE80077726974655F726567697374657228258F
:103DF8003032782C25303278290D0A005B577269E9
:103E080074696E672025752062797465732025753D
:103E180020626C616E6B735D0A0000005B52656125
:103E280064696E672025752062797465732025752D
:103E380020626C616E6B735D0A000000535441543C
:103E480055530909203D20307825303278205258C2
:103E58005F44523D25782054585F44533D257820CF
:103E68004D41585F52543D25782052585F505F4E5F
:103E78004F3D25782054585F46554C4C3D25780DCC
:103E88000A0000004F4253455256455F54583D259D
:103E98003032783A20504F4C535F434E543D25788A
:103EA800204152435F434E543D25780D0A000000DF
:103EB800257309203D000000203078253032780035
:103EC8000D0A00002530327800000000314D4250C4
:103ED80053000000324D4250530000003235304B41
:103EE80042505300D43E0008DC3E0008E43E00087F
:103EF8006E524632344C3031000000006E52463269
:103F0800344C30312B000000F83E0008043F000814
:103F180044697361626C656400000000382062695E
:103F2800747300003136206269747300183F00080A
:103F3800243F00082C3F000850415F4D494E0000C7
:103F480050415F4C4F57000050415F484947480077
:103F580050415F4D41580000403F0008483F00086D
:103F6800503F0008583F000852585F414444525F90
:103F780050302D310000000052585F414444525FD8
:103F880050322D350000000054585F414444520916
:103F98000000000052585F50575F50302D36000027
:103FA800454E5F4141090000454E5F525841444427
:103FB8005200000052465F434809000052465F53D2
:103FC8004554555000000000434F4E4649470900EC
:103FD80044594E50442F464541545552450000001F
:103FE80044617461205261746509203D2025730D78
:103FF8000A0000004D6F64656C0909203D20257397
:104008000D0A0000435243204C656E67746809200E
:104018003D2025730D0A0000504120506F776572CE
:1040280009203D2025730D0A00000000000102034D
:104038000405000052463234204841524457415248
:1040480045204641494C3A20526164696F206E6FA1
:104058007420726573706F6E64696E672C20766564
:10406800726966792070696E20636F6E6E6563741D
:10407800696F6E732C20776972696E672C2065747E
:10408800632E0D0A000000000A0B0C0D0E0F000035
:104098001112131415160000464541545552453D5A
:1040A80025690D0A0002030405060708090A0B0C16
:1040B8000D0E0F10100000000000000000010203A8
:1040C80004060708090000000001020304232D303C
:1040D8002B2000686C4C0065666745464700303108
:1040E8003233343536373839414243444546003057
:1040F8003132333435363738396162636465660086
:1041080001970181B0B00884000000000197018187
:10411800B0B008840000000001970181B0B00884A5
:104128000000000001970181B0B008840000000081
:1041380003970181B0B00884000000000597018151
:10414800B0B00884000000001B970181B0B008845B
:10415800000000001F970181B0B008840000000033
:1041680001970181B0B00884000000000197018127
:10417800B0B008840000000003970181B0B0088443
:104188000000000001970181B0B008840000000021
:1041980003970181B0B008840000000003970181F3
:1041A800B0B008840000000003970181B0B0088413
:1041B800000000001B970181B0B0088400000000D7
:1041C80005970181B0B008840000000003970181C1
:1041D800B0B008840000000003970181B0B00884E3
:1041E8000000000003970181B0B0088400000000BF
:1041F80003970181B0B00884000000000397018193
:10420800B0B008840000000001970181B0B00884B4
:10421800000000000C970181B0B009840000000084
:104228000F970181B0B00884000000000597018154
:10423800B0B008840000000007970181B0B008847E
:104248000000000008B10181B0B000840000000047
:0C42580008B10181B0B00084000000003B
:10426400FCBEFF7F0100000090BFFF7FB0A9028069
:104274002CC0FF7FB0B0A8807CC0FF7F010000008D
:1042840088C0FF7FB0B0AA80C0C0FF7FAE71B2808B
:1042940090C1FF7F010000008CC1FF7FAB3F3880DD
:1042A400E4C1FF7F01000000F0C1FF7FB0B0AA802D
:1042B4002CC2FF7F01000000E4C2FF7FAB0EB2807E
:1042C40050C3FF7FB0AF0A8018C6FF7F0100000013
:1042D4001CC6FF7FAB3F048060C8FF7F0100000065
:1042E4003CCAFF7F0084048050CAFF7F01000000A5
:1042F4004CCAFF7FB0AD048014CDFF7FB0A9048009
:1043040038CDFF7F44FFFF7F3CCDFF7F48FFFF7F19
:1043140048CDFF7F0100000050CDFF7FE8FDFF7F07
:104324006CCDFF7FECFDFF7F88CDFF7FF0FDFF7F2D
:1043340098CDFF7FF4FDFF7FA8CDFF7FF8FDFF7FC1
:10434400F0CDFF7FFCFDFF7F4CCEFF7F00FEFF7FA3
:10435400D8CEFF7F04FEFF7FC0CFFF7F08FEFF7F24
:10436400D2CFFF7F0CFEFF7FE4CFFF7F10FEFF7FE5
:1043740014D0FF7F14FEFF7F26D0FF7F01000000D2
:104384007CD0FF7F10FEFF7FA4D0FF7F14FEFF7F51
:1043940072D1FF7F18FEFF7FA8D1FF7F1CFEFF7F35
:1043A400ECD1FF7F20FEFF7F84D2FF7F24FEFF7FBE
:1043B400A0D2FF7F28FEFF7FDAD2FF7F2CFEFF7F93
:1043C40010D3FF7F30FEFF7F50D3FF7F34FEFF7F8B
:1043D400D4D3FF7F38FEFF7F04D4FF7F3CFEFF7FF2
:1043E40084D4FF7F40FEFF7F1CD5FF7F0884978025
:1043F4008CD5FF7F3CFEFF7F38D6FF7F08849780F3
:104404008CD6FF7F38FEFF7F44D7FF7F010000007A
:044414003501000866
:044418001101000886
:10441C004100000000A24A0401000000100000004E
:10442C00140000200000000000000000000000004C
:10443C000000000000000000000000000000000070
:10444C000000000000000000000000000000000060
:10445C000000000000000000000000000000000050
:10446C000000000000000000000000000000000040
:10447C000000000000000000000000000000000030
:04448C00000000002C
:040000050800343586
:00000001FF
